{
  "_format": "hh-sol-artifact-1",
  "contractName": "arbiSperms",
  "sourceName": "contracts/nft_test.sol",
  "abi": [
    {
      "inputs": [],
      "stateMutability": "nonpayable",
      "type": "constructor"
    },
    {
      "anonymous": false,
      "inputs": [
        {
          "indexed": true,
          "internalType": "address",
          "name": "owner",
          "type": "address"
        },
        {
          "indexed": true,
          "internalType": "address",
          "name": "approved",
          "type": "address"
        },
        {
          "indexed": true,
          "internalType": "uint256",
          "name": "tokenId",
          "type": "uint256"
        }
      ],
      "name": "Approval",
      "type": "event"
    },
    {
      "anonymous": false,
      "inputs": [
        {
          "indexed": true,
          "internalType": "address",
          "name": "owner",
          "type": "address"
        },
        {
          "indexed": true,
          "internalType": "address",
          "name": "operator",
          "type": "address"
        },
        {
          "indexed": false,
          "internalType": "bool",
          "name": "approved",
          "type": "bool"
        }
      ],
      "name": "ApprovalForAll",
      "type": "event"
    },
    {
      "anonymous": false,
      "inputs": [
        {
          "indexed": true,
          "internalType": "uint256",
          "name": "tokenId",
          "type": "uint256"
        }
      ],
      "name": "Delist",
      "type": "event"
    },
    {
      "anonymous": false,
      "inputs": [
        {
          "indexed": true,
          "internalType": "uint256",
          "name": "tokenId",
          "type": "uint256"
        },
        {
          "indexed": false,
          "internalType": "uint256",
          "name": "value",
          "type": "uint256"
        }
      ],
      "name": "List",
      "type": "event"
    },
    {
      "anonymous": false,
      "inputs": [
        {
          "indexed": true,
          "internalType": "address",
          "name": "previousOwner",
          "type": "address"
        },
        {
          "indexed": true,
          "internalType": "address",
          "name": "newOwner",
          "type": "address"
        }
      ],
      "name": "OwnershipTransferred",
      "type": "event"
    },
    {
      "anonymous": false,
      "inputs": [
        {
          "indexed": true,
          "internalType": "address",
          "name": "from",
          "type": "address"
        },
        {
          "indexed": true,
          "internalType": "address",
          "name": "to",
          "type": "address"
        },
        {
          "indexed": true,
          "internalType": "uint256",
          "name": "tokenId",
          "type": "uint256"
        }
      ],
      "name": "Transfer",
      "type": "event"
    },
    {
      "inputs": [],
      "name": "MAX_SpermS",
      "outputs": [
        {
          "internalType": "uint256",
          "name": "",
          "type": "uint256"
        }
      ],
      "stateMutability": "view",
      "type": "function"
    },
    {
      "inputs": [],
      "name": "MINT_FEE",
      "outputs": [
        {
          "internalType": "uint256",
          "name": "",
          "type": "uint256"
        }
      ],
      "stateMutability": "view",
      "type": "function"
    },
    {
      "inputs": [
        {
          "internalType": "address",
          "name": "to",
          "type": "address"
        },
        {
          "internalType": "uint256",
          "name": "tokenId",
          "type": "uint256"
        }
      ],
      "name": "approve",
      "outputs": [],
      "stateMutability": "nonpayable",
      "type": "function"
    },
    {
      "inputs": [
        {
          "internalType": "address",
          "name": "owner",
          "type": "address"
        }
      ],
      "name": "balanceOf",
      "outputs": [
        {
          "internalType": "uint256",
          "name": "",
          "type": "uint256"
        }
      ],
      "stateMutability": "view",
      "type": "function"
    },
    {
      "inputs": [],
      "name": "base",
      "outputs": [
        {
          "internalType": "string",
          "name": "",
          "type": "string"
        }
      ],
      "stateMutability": "view",
      "type": "function"
    },
    {
      "inputs": [
        {
          "internalType": "uint256",
          "name": "tokenId",
          "type": "uint256"
        }
      ],
      "name": "burn",
      "outputs": [],
      "stateMutability": "nonpayable",
      "type": "function"
    },
    {
      "inputs": [
        {
          "internalType": "uint256",
          "name": "tokenId",
          "type": "uint256"
        }
      ],
      "name": "buySperm",
      "outputs": [],
      "stateMutability": "payable",
      "type": "function"
    },
    {
      "inputs": [
        {
          "internalType": "uint256",
          "name": "tokenId",
          "type": "uint256"
        }
      ],
      "name": "delistSperm",
      "outputs": [],
      "stateMutability": "nonpayable",
      "type": "function"
    },
    {
      "inputs": [
        {
          "internalType": "uint256",
          "name": "tokenId",
          "type": "uint256"
        }
      ],
      "name": "getApproved",
      "outputs": [
        {
          "internalType": "address",
          "name": "",
          "type": "address"
        }
      ],
      "stateMutability": "view",
      "type": "function"
    },
    {
      "inputs": [
        {
          "internalType": "address",
          "name": "owner",
          "type": "address"
        },
        {
          "internalType": "address",
          "name": "operator",
          "type": "address"
        }
      ],
      "name": "isApprovedForAll",
      "outputs": [
        {
          "internalType": "bool",
          "name": "",
          "type": "bool"
        }
      ],
      "stateMutability": "view",
      "type": "function"
    },
    {
      "inputs": [],
      "name": "isMarketPlaceOn",
      "outputs": [
        {
          "internalType": "bool",
          "name": "",
          "type": "bool"
        }
      ],
      "stateMutability": "view",
      "type": "function"
    },
    {
      "inputs": [
        {
          "internalType": "uint256",
          "name": "tokenId",
          "type": "uint256"
        },
        {
          "internalType": "uint256",
          "name": "price",
          "type": "uint256"
        }
      ],
      "name": "listSperm",
      "outputs": [],
      "stateMutability": "nonpayable",
      "type": "function"
    },
    {
      "inputs": [
        {
          "internalType": "uint256",
          "name": "",
          "type": "uint256"
        }
      ],
      "name": "listings",
      "outputs": [
        {
          "internalType": "uint256",
          "name": "",
          "type": "uint256"
        }
      ],
      "stateMutability": "view",
      "type": "function"
    },
    {
      "inputs": [
        {
          "internalType": "uint256",
          "name": "_numSperms",
          "type": "uint256"
        }
      ],
      "name": "mint",
      "outputs": [],
      "stateMutability": "payable",
      "type": "function"
    },
    {
      "inputs": [],
      "name": "name",
      "outputs": [
        {
          "internalType": "string",
          "name": "",
          "type": "string"
        }
      ],
      "stateMutability": "view",
      "type": "function"
    },
    {
      "inputs": [],
      "name": "owner",
      "outputs": [
        {
          "internalType": "address",
          "name": "",
          "type": "address"
        }
      ],
      "stateMutability": "view",
      "type": "function"
    },
    {
      "inputs": [
        {
          "internalType": "uint256",
          "name": "tokenId",
          "type": "uint256"
        }
      ],
      "name": "ownerOf",
      "outputs": [
        {
          "internalType": "address",
          "name": "",
          "type": "address"
        }
      ],
      "stateMutability": "view",
      "type": "function"
    },
    {
      "inputs": [],
      "name": "renounceOwnership",
      "outputs": [],
      "stateMutability": "nonpayable",
      "type": "function"
    },
    {
      "inputs": [
        {
          "internalType": "uint256",
          "name": "_reserveAmount",
          "type": "uint256"
        }
      ],
      "name": "reserveTokens",
      "outputs": [],
      "stateMutability": "nonpayable",
      "type": "function"
    },
    {
      "inputs": [
        {
          "internalType": "address",
          "name": "from",
          "type": "address"
        },
        {
          "internalType": "address",
          "name": "to",
          "type": "address"
        },
        {
          "internalType": "uint256",
          "name": "tokenId",
          "type": "uint256"
        }
      ],
      "name": "safeTransferFrom",
      "outputs": [],
      "stateMutability": "nonpayable",
      "type": "function"
    },
    {
      "inputs": [
        {
          "internalType": "address",
          "name": "from",
          "type": "address"
        },
        {
          "internalType": "address",
          "name": "to",
          "type": "address"
        },
        {
          "internalType": "uint256",
          "name": "tokenId",
          "type": "uint256"
        },
        {
          "internalType": "bytes",
          "name": "_data",
          "type": "bytes"
        }
      ],
      "name": "safeTransferFrom",
      "outputs": [],
      "stateMutability": "nonpayable",
      "type": "function"
    },
    {
      "inputs": [
        {
          "internalType": "address",
          "name": "operator",
          "type": "address"
        },
        {
          "internalType": "bool",
          "name": "approved",
          "type": "bool"
        }
      ],
      "name": "setApprovalForAll",
      "outputs": [],
      "stateMutability": "nonpayable",
      "type": "function"
    },
    {
      "inputs": [
        {
          "internalType": "string",
          "name": "_baseTokenURI",
          "type": "string"
        }
      ],
      "name": "setBaseTokenURI",
      "outputs": [],
      "stateMutability": "nonpayable",
      "type": "function"
    },
    {
      "inputs": [
        {
          "internalType": "bytes4",
          "name": "interfaceId",
          "type": "bytes4"
        }
      ],
      "name": "supportsInterface",
      "outputs": [
        {
          "internalType": "bool",
          "name": "",
          "type": "bool"
        }
      ],
      "stateMutability": "view",
      "type": "function"
    },
    {
      "inputs": [],
      "name": "symbol",
      "outputs": [
        {
          "internalType": "string",
          "name": "",
          "type": "string"
        }
      ],
      "stateMutability": "view",
      "type": "function"
    },
    {
      "inputs": [],
      "name": "toggleMarketPlace",
      "outputs": [],
      "stateMutability": "nonpayable",
      "type": "function"
    },
    {
      "inputs": [
        {
          "internalType": "uint256",
          "name": "index",
          "type": "uint256"
        }
      ],
      "name": "tokenByIndex",
      "outputs": [
        {
          "internalType": "uint256",
          "name": "",
          "type": "uint256"
        }
      ],
      "stateMutability": "view",
      "type": "function"
    },
    {
      "inputs": [
        {
          "internalType": "address",
          "name": "owner",
          "type": "address"
        },
        {
          "internalType": "uint256",
          "name": "index",
          "type": "uint256"
        }
      ],
      "name": "tokenOfOwnerByIndex",
      "outputs": [
        {
          "internalType": "uint256",
          "name": "",
          "type": "uint256"
        }
      ],
      "stateMutability": "view",
      "type": "function"
    },
    {
      "inputs": [
        {
          "internalType": "uint256",
          "name": "tokenId",
          "type": "uint256"
        }
      ],
      "name": "tokenURI",
      "outputs": [
        {
          "internalType": "string",
          "name": "",
          "type": "string"
        }
      ],
      "stateMutability": "view",
      "type": "function"
    },
    {
      "inputs": [],
      "name": "totalSupply",
      "outputs": [
        {
          "internalType": "uint256",
          "name": "",
          "type": "uint256"
        }
      ],
      "stateMutability": "view",
      "type": "function"
    },
    {
      "inputs": [
        {
          "internalType": "address",
          "name": "from",
          "type": "address"
        },
        {
          "internalType": "address",
          "name": "to",
          "type": "address"
        },
        {
          "internalType": "uint256",
          "name": "tokenId",
          "type": "uint256"
        }
      ],
      "name": "transferFrom",
      "outputs": [],
      "stateMutability": "nonpayable",
      "type": "function"
    },
    {
      "inputs": [
        {
          "internalType": "address",
          "name": "newOwner",
          "type": "address"
        }
      ],
      "name": "transferOwnership",
      "outputs": [],
      "stateMutability": "nonpayable",
      "type": "function"
    },
    {
      "inputs": [],
      "name": "withdraw",
      "outputs": [],
      "stateMutability": "nonpayable",
      "type": "function"
    }
  ],
  "bytecode": "60806040526001600d60006101000a81548160ff02191690831515021790555060405180606001604052806036815260200162005e8360369139600f90805190602001906200005092919062000dcc565b503480156200005e57600080fd5b506040518060400160405280600b81526020017f4172626920537065726d730000000000000000000000000000000000000000008152506040518060400160405280600581526020017f537065726d000000000000000000000000000000000000000000000000000000815250620000eb620000df6200013f60201b60201c565b6200014760201b60201c565b81600190805190602001906200010392919062000dcc565b5080600290805190602001906200011c92919062000dcc565b5050506001600b8190555062000139600a6200020b60201b60201c565b6200146e565b600033905090565b60008060009054906101000a900473ffffffffffffffffffffffffffffffffffffffff169050816000806101000a81548173ffffffffffffffffffffffffffffffffffffffff021916908373ffffffffffffffffffffffffffffffffffffffff1602179055508173ffffffffffffffffffffffffffffffffffffffff168173ffffffffffffffffffffffffffffffffffffffff167f8be0079c531659141344cd1fd0a4f28419497f9722a3daafe3b4186f6b6457e060405160405180910390a35050565b6200021b6200013f60201b60201c565b73ffffffffffffffffffffffffffffffffffffffff16620002416200030e60201b60201c565b73ffffffffffffffffffffffffffffffffffffffff16146200029a576040517f08c379a00000000000000000000000000000000000000000000000000000000081526004016200029190620010c1565b60405180910390fd5b60005b818110156200030a57620002dd620002ba6200030e60201b60201c565b620002d1600c6200033760201b62001bef1760201c565b6200034560201b60201c565b620002f4600c6200036b60201b62001bfd1760201c565b808062000301906200127e565b9150506200029d565b5050565b60008060009054906101000a900473ffffffffffffffffffffffffffffffffffffffff16905090565b600081600001549050919050565b620003678282604051806020016040528060008152506200038160201b60201c565b5050565b6001816000016000828254019250508190555050565b620003938383620003ef60201b60201c565b620003a86000848484620005d560201b60201c565b620003ea576040517f08c379a0000000000000000000000000000000000000000000000000000000008152600401620003e19062001039565b60405180910390fd5b505050565b600073ffffffffffffffffffffffffffffffffffffffff168273ffffffffffffffffffffffffffffffffffffffff16141562000462576040517f08c379a000000000000000000000000000000000000000000000000000000000815260040162000459906200109f565b60405180910390fd5b62000473816200078f60201b60201c565b15620004b6576040517f08c379a0000000000000000000000000000000000000000000000000000000008152600401620004ad906200105b565b60405180910390fd5b620004ca60008383620007fb60201b60201c565b6001600460008473ffffffffffffffffffffffffffffffffffffffff1673ffffffffffffffffffffffffffffffffffffffff16815260200190815260200160002060008282546200051c919062001110565b92505081905550816003600083815260200190815260200160002060006101000a81548173ffffffffffffffffffffffffffffffffffffffff021916908373ffffffffffffffffffffffffffffffffffffffff160217905550808273ffffffffffffffffffffffffffffffffffffffff16600073ffffffffffffffffffffffffffffffffffffffff167fddf252ad1be2c89b69c2b068fc378daa952ba7f163c4a11628f55a4df523b3ef60405160405180910390a45050565b6000620006038473ffffffffffffffffffffffffffffffffffffffff166200081860201b62001c131760201c565b1562000782578373ffffffffffffffffffffffffffffffffffffffff1663150b7a02620006356200013f60201b60201c565b8786866040518563ffffffff1660e01b815260040162000659949392919062000fe5565b602060405180830381600087803b1580156200067457600080fd5b505af1925050508015620006a857506040513d601f19601f82011682018060405250810190620006a5919062000e93565b60015b62000731573d8060008114620006db576040519150601f19603f3d011682016040523d82523d6000602084013e620006e0565b606091505b5060008151141562000729576040517f08c379a0000000000000000000000000000000000000000000000000000000008152600401620007209062001039565b60405180910390fd5b805181602001fd5b63150b7a0260e01b7bffffffffffffffffffffffffffffffffffffffffffffffffffffffff1916817bffffffffffffffffffffffffffffffffffffffffffffffffffffffff19161491505062000787565b600190505b949350505050565b60008073ffffffffffffffffffffffffffffffffffffffff166003600084815260200190815260200160002060009054906101000a900473ffffffffffffffffffffffffffffffffffffffff1673ffffffffffffffffffffffffffffffffffffffff1614159050919050565b620008138383836200082b60201b62001c261760201c565b505050565b600080823b905060008111915050919050565b620008438383836200097260201b62001d3a1760201c565b600073ffffffffffffffffffffffffffffffffffffffff168373ffffffffffffffffffffffffffffffffffffffff16141562000890576200088a816200097760201b60201c565b620008d8565b8173ffffffffffffffffffffffffffffffffffffffff168373ffffffffffffffffffffffffffffffffffffffff1614620008d757620008d68382620009c060201b60201c565b5b5b600073ffffffffffffffffffffffffffffffffffffffff168273ffffffffffffffffffffffffffffffffffffffff16141562000925576200091f8162000b3d60201b60201c565b6200096d565b8273ffffffffffffffffffffffffffffffffffffffff168273ffffffffffffffffffffffffffffffffffffffff16146200096c576200096b828262000c8560201b60201c565b5b5b505050565b505050565b600980549050600a600083815260200190815260200160002081905550600981908060018154018082558091505060019003906000526020600020016000909190919091505550565b60006001620009da8462000d1160201b620012ec1760201c565b620009e691906200116d565b905060006008600084815260200190815260200160002054905081811462000acc576000600760008673ffffffffffffffffffffffffffffffffffffffff1673ffffffffffffffffffffffffffffffffffffffff168152602001908152602001600020600084815260200190815260200160002054905080600760008773ffffffffffffffffffffffffffffffffffffffff1673ffffffffffffffffffffffffffffffffffffffff168152602001908152602001600020600084815260200190815260200160002081905550816008600083815260200190815260200160002081905550505b6008600084815260200190815260200160002060009055600760008573ffffffffffffffffffffffffffffffffffffffff1673ffffffffffffffffffffffffffffffffffffffff16815260200190815260200160002060008381526020019081526020016000206000905550505050565b6000600160098054905062000b5391906200116d565b90506000600a600084815260200190815260200160002054905060006009838154811062000baa577f4e487b7100000000000000000000000000000000000000000000000000000000600052603260045260246000fd5b90600052602060002001549050806009838154811062000bf3577f4e487b7100000000000000000000000000000000000000000000000000000000600052603260045260246000fd5b906000526020600020018190555081600a600083815260200190815260200160002081905550600a600085815260200190815260200160002060009055600980548062000c69577f4e487b7100000000000000000000000000000000000000000000000000000000600052603160045260246000fd5b6001900381819060005260206000200160009055905550505050565b600062000c9d8362000d1160201b620012ec1760201c565b905081600760008573ffffffffffffffffffffffffffffffffffffffff1673ffffffffffffffffffffffffffffffffffffffff168152602001908152602001600020600083815260200190815260200160002081905550806008600084815260200190815260200160002081905550505050565b60008073ffffffffffffffffffffffffffffffffffffffff168273ffffffffffffffffffffffffffffffffffffffff16141562000d85576040517f08c379a000000000000000000000000000000000000000000000000000000000815260040162000d7c906200107d565b60405180910390fd5b600460008373ffffffffffffffffffffffffffffffffffffffff1673ffffffffffffffffffffffffffffffffffffffff168152602001908152602001600020549050919050565b82805462000dda9062001248565b90600052602060002090601f01602090048101928262000dfe576000855562000e4a565b82601f1062000e1957805160ff191683800117855562000e4a565b8280016001018555821562000e4a579182015b8281111562000e4957825182559160200191906001019062000e2c565b5b50905062000e59919062000e5d565b5090565b5b8082111562000e7857600081600090555060010162000e5e565b5090565b60008151905062000e8d8162001454565b92915050565b60006020828403121562000ea657600080fd5b600062000eb68482850162000e7c565b91505092915050565b62000eca81620011a8565b82525050565b600062000edd82620010e3565b62000ee98185620010ee565b935062000efb81856020860162001212565b62000f06816200132a565b840191505092915050565b600062000f20603283620010ff565b915062000f2d826200133b565b604082019050919050565b600062000f47601c83620010ff565b915062000f54826200138a565b602082019050919050565b600062000f6e602a83620010ff565b915062000f7b82620013b3565b604082019050919050565b600062000f95602083620010ff565b915062000fa28262001402565b602082019050919050565b600062000fbc602083620010ff565b915062000fc9826200142b565b602082019050919050565b62000fdf8162001208565b82525050565b600060808201905062000ffc600083018762000ebf565b6200100b602083018662000ebf565b6200101a604083018562000fd4565b81810360608301526200102e818462000ed0565b905095945050505050565b60006020820190508181036000830152620010548162000f11565b9050919050565b60006020820190508181036000830152620010768162000f38565b9050919050565b60006020820190508181036000830152620010988162000f5f565b9050919050565b60006020820190508181036000830152620010ba8162000f86565b9050919050565b60006020820190508181036000830152620010dc8162000fad565b9050919050565b600081519050919050565b600082825260208201905092915050565b600082825260208201905092915050565b60006200111d8262001208565b91506200112a8362001208565b9250827fffffffffffffffffffffffffffffffffffffffffffffffffffffffffffffffff03821115620011625762001161620012cc565b5b828201905092915050565b60006200117a8262001208565b9150620011878362001208565b9250828210156200119d576200119c620012cc565b5b828203905092915050565b6000620011b582620011e8565b9050919050565b60007fffffffff0000000000000000000000000000000000000000000000000000000082169050919050565b600073ffffffffffffffffffffffffffffffffffffffff82169050919050565b6000819050919050565b60005b838110156200123257808201518184015260208101905062001215565b8381111562001242576000848401525b50505050565b600060028204905060018216806200126157607f821691505b60208210811415620012785762001277620012fb565b5b50919050565b60006200128b8262001208565b91507fffffffffffffffffffffffffffffffffffffffffffffffffffffffffffffffff821415620012c157620012c0620012cc565b5b600182019050919050565b7f4e487b7100000000000000000000000000000000000000000000000000000000600052601160045260246000fd5b7f4e487b7100000000000000000000000000000000000000000000000000000000600052602260045260246000fd5b6000601f19601f8301169050919050565b7f4552433732313a207472616e7366657220746f206e6f6e20455243373231526560008201527f63656976657220696d706c656d656e7465720000000000000000000000000000602082015250565b7f4552433732313a20746f6b656e20616c7265616479206d696e74656400000000600082015250565b7f4552433732313a2062616c616e636520717565727920666f7220746865207a6560008201527f726f206164647265737300000000000000000000000000000000000000000000602082015250565b7f4552433732313a206d696e7420746f20746865207a65726f2061646472657373600082015250565b7f4f776e61626c653a2063616c6c6572206973206e6f7420746865206f776e6572600082015250565b6200145f81620011bc565b81146200146b57600080fd5b50565b614a05806200147e6000396000f3fe6080604052600436106101ee5760003560e01c8063605502a11161010d578063a0712d68116100a0578063d031370b1161006f578063d031370b146106b9578063d7bf81a3146106e2578063de74e57b1461070d578063e985e9c51461074a578063f2fde38b14610787576101ee565b8063a0712d681461060e578063a22cb4651461062a578063b88d4fde14610653578063c87b56dd1461067c576101ee565b80637146b66d116100dc5780637146b66d14610578578063715018a6146105a15780638da5cb5b146105b857806395d89b41146105e3576101ee565b8063605502a1146104b75780636352211e146104d35780636d0186301461051057806370a082311461053b576101ee565b80632f745c591161018557806342842e0e1161015457806342842e0e146103fd57806342966c68146104265780634f6ccce71461044f5780635001f3b51461048c576101ee565b80632f745c591461035557806330176e13146103925780633ccfd60b146103bb57806342305ef4146103d2576101ee565b806318160ddd116101c157806318160ddd146102c157806318c6dcb0146102ec57806323b872dd1461030357806329f74d571461032c576101ee565b806301ffc9a7146101f357806306fdde0314610230578063081812fc1461025b578063095ea7b314610298575b600080fd5b3480156101ff57600080fd5b5061021a600480360381019061021591906133a7565b6107b0565b6040516102279190613a29565b60405180910390f35b34801561023c57600080fd5b506102456107c2565b6040516102529190613a44565b60405180910390f35b34801561026757600080fd5b50610282600480360381019061027d919061343a565b610854565b60405161028f91906139c2565b60405180910390f35b3480156102a457600080fd5b506102bf60048036038101906102ba919061336b565b6108d9565b005b3480156102cd57600080fd5b506102d66109f1565b6040516102e39190613e06565b60405180910390f35b3480156102f857600080fd5b506103016109fe565b005b34801561030f57600080fd5b5061032a60048036038101906103259190613265565b610aa6565b005b34801561033857600080fd5b50610353600480360381019061034e9190613463565b610adb565b005b34801561036157600080fd5b5061037c6004803603810190610377919061336b565b610c01565b6040516103899190613e06565b60405180910390f35b34801561039e57600080fd5b506103b960048036038101906103b491906133f9565b610ca6565b005b3480156103c757600080fd5b506103d0610d3c565b005b3480156103de57600080fd5b506103e7610e6e565b6040516103f49190613e06565b60405180910390f35b34801561040957600080fd5b50610424600480360381019061041f9190613265565b610e74565b005b34801561043257600080fd5b5061044d6004803603810190610448919061343a565b610ea9565b005b34801561045b57600080fd5b506104766004803603810190610471919061343a565b610f05565b6040516104839190613e06565b60405180910390f35b34801561049857600080fd5b506104a1610f9c565b6040516104ae9190613a44565b60405180910390f35b6104d160048036038101906104cc919061343a565b61102a565b005b3480156104df57600080fd5b506104fa60048036038101906104f5919061343a565b611227565b60405161050791906139c2565b60405180910390f35b34801561051c57600080fd5b506105256112d9565b6040516105329190613a29565b60405180910390f35b34801561054757600080fd5b50610562600480360381019061055d9190613200565b6112ec565b60405161056f9190613e06565b60405180910390f35b34801561058457600080fd5b5061059f600480360381019061059a919061343a565b6113a4565b005b3480156105ad57600080fd5b506105b6611463565b005b3480156105c457600080fd5b506105cd6114eb565b6040516105da91906139c2565b60405180910390f35b3480156105ef57600080fd5b506105f8611514565b6040516106059190613a44565b60405180910390f35b6106286004803603810190610623919061343a565b6115a6565b005b34801561063657600080fd5b50610651600480360381019061064c919061332f565b61171f565b005b34801561065f57600080fd5b5061067a600480360381019061067591906132b4565b6118a0565b005b34801561068857600080fd5b506106a3600480360381019061069e919061343a565b6118d7565b6040516106b09190613a44565b60405180910390f35b3480156106c557600080fd5b506106e060048036038101906106db919061343a565b61197e565b005b3480156106ee57600080fd5b506106f7611a40565b6040516107049190613e06565b60405180910390f35b34801561071957600080fd5b50610734600480360381019061072f919061343a565b611a4b565b6040516107419190613e06565b60405180910390f35b34801561075657600080fd5b50610771600480360381019061076c9190613229565b611a63565b60405161077e9190613a29565b60405180910390f35b34801561079357600080fd5b506107ae60048036038101906107a99190613200565b611af7565b005b60006107bb82611d3f565b9050919050565b6060600180546107d1906140c1565b80601f01602080910402602001604051908101604052809291908181526020018280546107fd906140c1565b801561084a5780601f1061081f5761010080835404028352916020019161084a565b820191906000526020600020905b81548152906001019060200180831161082d57829003601f168201915b5050505050905090565b600061085f82611db9565b61089e576040517f08c379a000000000000000000000000000000000000000000000000000000000815260040161089590613c06565b60405180910390fd5b6005600083815260200190815260200160002060009054906101000a900473ffffffffffffffffffffffffffffffffffffffff169050919050565b60006108e482611227565b90508073ffffffffffffffffffffffffffffffffffffffff168373ffffffffffffffffffffffffffffffffffffffff161415610955576040517f08c379a000000000000000000000000000000000000000000000000000000000815260040161094c90613ce6565b60405180910390fd5b8073ffffffffffffffffffffffffffffffffffffffff16610974611e25565b73ffffffffffffffffffffffffffffffffffffffff1614806109a357506109a28161099d611e25565b611a63565b5b6109e2576040517f08c379a00000000000000000000000000000000000000000000000000000000081526004016109d990613b66565b60405180910390fd5b6109ec8383611e2d565b505050565b6000600980549050905090565b610a06611e25565b73ffffffffffffffffffffffffffffffffffffffff16610a246114eb565b73ffffffffffffffffffffffffffffffffffffffff1614610a7a576040517f08c379a0000000000000000000000000000000000000000000000000000000008152600401610a7190613c46565b60405180910390fd5b600d60009054906101000a900460ff1615600d60006101000a81548160ff021916908315150217905550565b6000600e60008381526020019081526020016000205414610acb57610aca816113a4565b5b610ad6838383611ee6565b505050565b600d60009054906101000a900460ff16610b2a576040517f08c379a0000000000000000000000000000000000000000000000000000000008152600401610b2190613d06565b60405180910390fd5b610b3382611227565b73ffffffffffffffffffffffffffffffffffffffff163373ffffffffffffffffffffffffffffffffffffffff1614610ba0576040517f08c379a0000000000000000000000000000000000000000000000000000000008152600401610b9790613de6565b60405180910390fd5b60008111610bad57600080fd5b80600e600084815260200190815260200160002081905550817fc38e7832a23e5e13678e20a3184751ed5c3a1a74483e4f70f5e172e3b4ce5ac382604051610bf59190613e06565b60405180910390a25050565b6000610c0c836112ec565b8210610c4d576040517f08c379a0000000000000000000000000000000000000000000000000000000008152600401610c4490613a66565b60405180910390fd5b600760008473ffffffffffffffffffffffffffffffffffffffff1673ffffffffffffffffffffffffffffffffffffffff168152602001908152602001600020600083815260200190815260200160002054905092915050565b610cae611e25565b73ffffffffffffffffffffffffffffffffffffffff16610ccc6114eb565b73ffffffffffffffffffffffffffffffffffffffff1614610d22576040517f08c379a0000000000000000000000000000000000000000000000000000000008152600401610d1990613c46565b60405180910390fd5b80600f9080519060200190610d38929190613024565b5050565b610d44611e25565b73ffffffffffffffffffffffffffffffffffffffff16610d626114eb565b73ffffffffffffffffffffffffffffffffffffffff1614610db8576040517f08c379a0000000000000000000000000000000000000000000000000000000008152600401610daf90613c46565b60405180910390fd5b6000610dc26114eb565b73ffffffffffffffffffffffffffffffffffffffff1647604051610de5906139ad565b60006040518083038185875af1925050503d8060008114610e22576040519150601f19603f3d011682016040523d82523d6000602084013e610e27565b606091505b5050905080610e6b576040517f08c379a0000000000000000000000000000000000000000000000000000000008152600401610e6290613d26565b60405180910390fd5b50565b61010481565b6000600e60008381526020019081526020016000205414610e9957610e98816113a4565b5b610ea4838383611f46565b505050565b610eba610eb4611e25565b82611f66565b610ef9576040517f08c379a0000000000000000000000000000000000000000000000000000000008152600401610ef090613dc6565b60405180910390fd5b610f0281612044565b50565b6000610f0f6109f1565b8210610f50576040517f08c379a0000000000000000000000000000000000000000000000000000000008152600401610f4790613d66565b60405180910390fd5b60098281548110610f8a577f4e487b7100000000000000000000000000000000000000000000000000000000600052603260045260246000fd5b90600052602060002001549050919050565b600f8054610fa9906140c1565b80601f0160208091040260200160405190810160405280929190818152602001828054610fd5906140c1565b80156110225780601f10610ff757610100808354040283529160200191611022565b820191906000526020600020905b81548152906001019060200180831161100557829003601f168201915b505050505081565b6002600b541415611070576040517f08c379a000000000000000000000000000000000000000000000000000000000815260040161106790613da6565b60405180910390fd5b6002600b81905550600d60009054906101000a900460ff166110c7576040517f08c379a00000000000000000000000000000000000000000000000000000000081526004016110be90613d06565b60405180910390fd5b6000600e6000838152602001908152602001600020541161111d576040517f08c379a000000000000000000000000000000000000000000000000000000000815260040161111490613b26565b60405180910390fd5b600e600082815260200190815260200160002054341015611173576040517f08c379a000000000000000000000000000000000000000000000000000000000815260040161116a90613cc6565b60405180910390fd5b600061117e82611227565b905061118b813384612155565b6000600e60008481526020019081526020016000208190555060008173ffffffffffffffffffffffffffffffffffffffff16346040516111ca906139ad565b60006040518083038185875af1925050503d8060008114611207576040519150601f19603f3d011682016040523d82523d6000602084013e61120c565b606091505b505090508061121a57600080fd5b50506001600b8190555050565b6000806003600084815260200190815260200160002060009054906101000a900473ffffffffffffffffffffffffffffffffffffffff169050600073ffffffffffffffffffffffffffffffffffffffff168173ffffffffffffffffffffffffffffffffffffffff1614156112d0576040517f08c379a00000000000000000000000000000000000000000000000000000000081526004016112c790613ba6565b60405180910390fd5b80915050919050565b600d60009054906101000a900460ff1681565b60008073ffffffffffffffffffffffffffffffffffffffff168273ffffffffffffffffffffffffffffffffffffffff16141561135d576040517f08c379a000000000000000000000000000000000000000000000000000000000815260040161135490613b86565b60405180910390fd5b600460008373ffffffffffffffffffffffffffffffffffffffff1673ffffffffffffffffffffffffffffffffffffffff168152602001908152602001600020549050919050565b6113ad81611227565b73ffffffffffffffffffffffffffffffffffffffff163373ffffffffffffffffffffffffffffffffffffffff161461141a576040517f08c379a000000000000000000000000000000000000000000000000000000000815260040161141190613c26565b60405180910390fd5b6000600e600083815260200190815260200160002081905550807f2c525dc2c086b9a2f3b902d229853b5b838fcedc22933c40ed7ebe4890a53a8260405160405180910390a250565b61146b611e25565b73ffffffffffffffffffffffffffffffffffffffff166114896114eb565b73ffffffffffffffffffffffffffffffffffffffff16146114df576040517f08c379a00000000000000000000000000000000000000000000000000000000081526004016114d690613c46565b60405180910390fd5b6114e960006123b1565b565b60008060009054906101000a900473ffffffffffffffffffffffffffffffffffffffff16905090565b606060028054611523906140c1565b80601f016020809104026020016040519081016040528092919081815260200182805461154f906140c1565b801561159c5780601f106115715761010080835404028352916020019161159c565b820191906000526020600020905b81548152906001019060200180831161157f57829003601f168201915b5050505050905090565b60006115b2600c611bef565b905060148211156115f8576040517f08c379a00000000000000000000000000000000000000000000000000000000081526004016115ef90613bc6565b60405180910390fd5b61010482826116079190613ef6565b1115611648576040517f08c379a000000000000000000000000000000000000000000000000000000000815260040161163f90613d86565b60405180910390fd5b816658d15e1762800061165b9190613f7d565b341015801561167757506103e882826116749190613ef6565b11155b806116a057506002826658d15e176280006116929190613f7d565b61169c9190613f7d565b3410155b6116df576040517f08c379a00000000000000000000000000000000000000000000000000000000081526004016116d690613c66565b60405180910390fd5b60005b8281101561171a576116fd336116f8600c611bef565b612475565b611707600c611bfd565b808061171290614124565b9150506116e2565b505050565b611727611e25565b73ffffffffffffffffffffffffffffffffffffffff168273ffffffffffffffffffffffffffffffffffffffff161415611795576040517f08c379a000000000000000000000000000000000000000000000000000000000815260040161178c90613b06565b60405180910390fd5b80600660006117a2611e25565b73ffffffffffffffffffffffffffffffffffffffff1673ffffffffffffffffffffffffffffffffffffffff16815260200190815260200160002060008473ffffffffffffffffffffffffffffffffffffffff1673ffffffffffffffffffffffffffffffffffffffff16815260200190815260200160002060006101000a81548160ff0219169083151502179055508173ffffffffffffffffffffffffffffffffffffffff1661184f611e25565b73ffffffffffffffffffffffffffffffffffffffff167f17307eab39ab6107e8899845ad3d59bd9653f200f220920489ca2b5937696c31836040516118949190613a29565b60405180910390a35050565b6000600e600084815260200190815260200160002054146118c5576118c4826113a4565b5b6118d184848484612493565b50505050565b60606118e282611db9565b611921576040517f08c379a000000000000000000000000000000000000000000000000000000000815260040161191890613ca6565b60405180910390fd5b600061192b6124f5565b9050600081511161194b5760405180602001604052806000815250611976565b8061195584612587565b604051602001611966929190613989565b6040516020818303038152906040525b915050919050565b611986611e25565b73ffffffffffffffffffffffffffffffffffffffff166119a46114eb565b73ffffffffffffffffffffffffffffffffffffffff16146119fa576040517f08c379a00000000000000000000000000000000000000000000000000000000081526004016119f190613c46565b60405180910390fd5b60005b81811015611a3c57611a1f611a106114eb565b611a1a600c611bef565b612475565b611a29600c611bfd565b8080611a3490614124565b9150506119fd565b5050565b6658d15e1762800081565b600e6020528060005260406000206000915090505481565b6000600660008473ffffffffffffffffffffffffffffffffffffffff1673ffffffffffffffffffffffffffffffffffffffff16815260200190815260200160002060008373ffffffffffffffffffffffffffffffffffffffff1673ffffffffffffffffffffffffffffffffffffffff16815260200190815260200160002060009054906101000a900460ff16905092915050565b611aff611e25565b73ffffffffffffffffffffffffffffffffffffffff16611b1d6114eb565b73ffffffffffffffffffffffffffffffffffffffff1614611b73576040517f08c379a0000000000000000000000000000000000000000000000000000000008152600401611b6a90613c46565b60405180910390fd5b600073ffffffffffffffffffffffffffffffffffffffff168173ffffffffffffffffffffffffffffffffffffffff161415611be3576040517f08c379a0000000000000000000000000000000000000000000000000000000008152600401611bda90613aa6565b60405180910390fd5b611bec816123b1565b50565b600081600001549050919050565b6001816000016000828254019250508190555050565b600080823b905060008111915050919050565b611c31838383611d3a565b600073ffffffffffffffffffffffffffffffffffffffff168373ffffffffffffffffffffffffffffffffffffffff161415611c7457611c6f81612734565b611cb3565b8173ffffffffffffffffffffffffffffffffffffffff168373ffffffffffffffffffffffffffffffffffffffff1614611cb257611cb1838261277d565b5b5b600073ffffffffffffffffffffffffffffffffffffffff168273ffffffffffffffffffffffffffffffffffffffff161415611cf657611cf1816128ea565b611d35565b8273ffffffffffffffffffffffffffffffffffffffff168273ffffffffffffffffffffffffffffffffffffffff1614611d3457611d338282612a2d565b5b5b505050565b505050565b60007f780e9d63000000000000000000000000000000000000000000000000000000007bffffffffffffffffffffffffffffffffffffffffffffffffffffffff1916827bffffffffffffffffffffffffffffffffffffffffffffffffffffffff19161480611db25750611db182612aac565b5b9050919050565b60008073ffffffffffffffffffffffffffffffffffffffff166003600084815260200190815260200160002060009054906101000a900473ffffffffffffffffffffffffffffffffffffffff1673ffffffffffffffffffffffffffffffffffffffff1614159050919050565b600033905090565b816005600083815260200190815260200160002060006101000a81548173ffffffffffffffffffffffffffffffffffffffff021916908373ffffffffffffffffffffffffffffffffffffffff160217905550808273ffffffffffffffffffffffffffffffffffffffff16611ea083611227565b73ffffffffffffffffffffffffffffffffffffffff167f8c5be1e5ebec7d5bd14f71427d1e84f3dd0314c0f7b2291e5b200ac8c7c3b92560405160405180910390a45050565b611ef7611ef1611e25565b82611f66565b611f36576040517f08c379a0000000000000000000000000000000000000000000000000000000008152600401611f2d90613d46565b60405180910390fd5b611f41838383612155565b505050565b611f61838383604051806020016040528060008152506118a0565b505050565b6000611f7182611db9565b611fb0576040517f08c379a0000000000000000000000000000000000000000000000000000000008152600401611fa790613b46565b60405180910390fd5b6000611fbb83611227565b90508073ffffffffffffffffffffffffffffffffffffffff168473ffffffffffffffffffffffffffffffffffffffff16148061202a57508373ffffffffffffffffffffffffffffffffffffffff1661201284610854565b73ffffffffffffffffffffffffffffffffffffffff16145b8061203b575061203a8185611a63565b5b91505092915050565b600061204f82611227565b905061205d81600084612b8e565b612068600083611e2d565b6001600460008373ffffffffffffffffffffffffffffffffffffffff1673ffffffffffffffffffffffffffffffffffffffff16815260200190815260200160002060008282546120b89190613fd7565b925050819055506003600083815260200190815260200160002060006101000a81549073ffffffffffffffffffffffffffffffffffffffff021916905581600073ffffffffffffffffffffffffffffffffffffffff168273ffffffffffffffffffffffffffffffffffffffff167fddf252ad1be2c89b69c2b068fc378daa952ba7f163c4a11628f55a4df523b3ef60405160405180910390a45050565b8273ffffffffffffffffffffffffffffffffffffffff1661217582611227565b73ffffffffffffffffffffffffffffffffffffffff16146121cb576040517f08c379a00000000000000000000000000000000000000000000000000000000081526004016121c290613c86565b60405180910390fd5b600073ffffffffffffffffffffffffffffffffffffffff168273ffffffffffffffffffffffffffffffffffffffff16141561223b576040517f08c379a000000000000000000000000000000000000000000000000000000000815260040161223290613ae6565b60405180910390fd5b612246838383612b8e565b612251600082611e2d565b6001600460008573ffffffffffffffffffffffffffffffffffffffff1673ffffffffffffffffffffffffffffffffffffffff16815260200190815260200160002060008282546122a19190613fd7565b925050819055506001600460008473ffffffffffffffffffffffffffffffffffffffff1673ffffffffffffffffffffffffffffffffffffffff16815260200190815260200160002060008282546122f89190613ef6565b92505081905550816003600083815260200190815260200160002060006101000a81548173ffffffffffffffffffffffffffffffffffffffff021916908373ffffffffffffffffffffffffffffffffffffffff160217905550808273ffffffffffffffffffffffffffffffffffffffff168473ffffffffffffffffffffffffffffffffffffffff167fddf252ad1be2c89b69c2b068fc378daa952ba7f163c4a11628f55a4df523b3ef60405160405180910390a4505050565b60008060009054906101000a900473ffffffffffffffffffffffffffffffffffffffff169050816000806101000a81548173ffffffffffffffffffffffffffffffffffffffff021916908373ffffffffffffffffffffffffffffffffffffffff1602179055508173ffffffffffffffffffffffffffffffffffffffff168173ffffffffffffffffffffffffffffffffffffffff167f8be0079c531659141344cd1fd0a4f28419497f9722a3daafe3b4186f6b6457e060405160405180910390a35050565b61248f828260405180602001604052806000815250612b9e565b5050565b6124a461249e611e25565b83611f66565b6124e3576040517f08c379a00000000000000000000000000000000000000000000000000000000081526004016124da90613d46565b60405180910390fd5b6124ef84848484612bf9565b50505050565b6060600f8054612504906140c1565b80601f0160208091040260200160405190810160405280929190818152602001828054612530906140c1565b801561257d5780601f106125525761010080835404028352916020019161257d565b820191906000526020600020905b81548152906001019060200180831161256057829003601f168201915b5050505050905090565b606060008214156125cf576040518060400160405280600181526020017f3000000000000000000000000000000000000000000000000000000000000000815250905061272f565b600082905060005b600082146126015780806125ea90614124565b915050600a826125fa9190613f4c565b91506125d7565b60008167ffffffffffffffff811115612643577f4e487b7100000000000000000000000000000000000000000000000000000000600052604160045260246000fd5b6040519080825280601f01601f1916602001820160405280156126755781602001600182028036833780820191505090505b5090505b600085146127285760018261268e9190613fd7565b9150600a8561269d919061416d565b60306126a99190613ef6565b60f81b8183815181106126e5577f4e487b7100000000000000000000000000000000000000000000000000000000600052603260045260246000fd5b60200101907effffffffffffffffffffffffffffffffffffffffffffffffffffffffffffff1916908160001a905350600a856127219190613f4c565b9450612679565b8093505050505b919050565b600980549050600a600083815260200190815260200160002081905550600981908060018154018082558091505060019003906000526020600020016000909190919091505550565b6000600161278a846112ec565b6127949190613fd7565b9050600060086000848152602001908152602001600020549050818114612879576000600760008673ffffffffffffffffffffffffffffffffffffffff1673ffffffffffffffffffffffffffffffffffffffff168152602001908152602001600020600084815260200190815260200160002054905080600760008773ffffffffffffffffffffffffffffffffffffffff1673ffffffffffffffffffffffffffffffffffffffff168152602001908152602001600020600084815260200190815260200160002081905550816008600083815260200190815260200160002081905550505b6008600084815260200190815260200160002060009055600760008573ffffffffffffffffffffffffffffffffffffffff1673ffffffffffffffffffffffffffffffffffffffff16815260200190815260200160002060008381526020019081526020016000206000905550505050565b600060016009805490506128fe9190613fd7565b90506000600a6000848152602001908152602001600020549050600060098381548110612954577f4e487b7100000000000000000000000000000000000000000000000000000000600052603260045260246000fd5b90600052602060002001549050806009838154811061299c577f4e487b7100000000000000000000000000000000000000000000000000000000600052603260045260246000fd5b906000526020600020018190555081600a600083815260200190815260200160002081905550600a6000858152602001908152602001600020600090556009805480612a11577f4e487b7100000000000000000000000000000000000000000000000000000000600052603160045260246000fd5b6001900381819060005260206000200160009055905550505050565b6000612a38836112ec565b905081600760008573ffffffffffffffffffffffffffffffffffffffff1673ffffffffffffffffffffffffffffffffffffffff168152602001908152602001600020600083815260200190815260200160002081905550806008600084815260200190815260200160002081905550505050565b60007f80ac58cd000000000000000000000000000000000000000000000000000000007bffffffffffffffffffffffffffffffffffffffffffffffffffffffff1916827bffffffffffffffffffffffffffffffffffffffffffffffffffffffff19161480612b7757507f5b5e139f000000000000000000000000000000000000000000000000000000007bffffffffffffffffffffffffffffffffffffffffffffffffffffffff1916827bffffffffffffffffffffffffffffffffffffffffffffffffffffffff1916145b80612b875750612b8682612c55565b5b9050919050565b612b99838383611c26565b505050565b612ba88383612cbf565b612bb56000848484612e8d565b612bf4576040517f08c379a0000000000000000000000000000000000000000000000000000000008152600401612beb90613a86565b60405180910390fd5b505050565b612c04848484612155565b612c1084848484612e8d565b612c4f576040517f08c379a0000000000000000000000000000000000000000000000000000000008152600401612c4690613a86565b60405180910390fd5b50505050565b60007f01ffc9a7000000000000000000000000000000000000000000000000000000007bffffffffffffffffffffffffffffffffffffffffffffffffffffffff1916827bffffffffffffffffffffffffffffffffffffffffffffffffffffffff1916149050919050565b600073ffffffffffffffffffffffffffffffffffffffff168273ffffffffffffffffffffffffffffffffffffffff161415612d2f576040517f08c379a0000000000000000000000000000000000000000000000000000000008152600401612d2690613be6565b60405180910390fd5b612d3881611db9565b15612d78576040517f08c379a0000000000000000000000000000000000000000000000000000000008152600401612d6f90613ac6565b60405180910390fd5b612d8460008383612b8e565b6001600460008473ffffffffffffffffffffffffffffffffffffffff1673ffffffffffffffffffffffffffffffffffffffff1681526020019081526020016000206000828254612dd49190613ef6565b92505081905550816003600083815260200190815260200160002060006101000a81548173ffffffffffffffffffffffffffffffffffffffff021916908373ffffffffffffffffffffffffffffffffffffffff160217905550808273ffffffffffffffffffffffffffffffffffffffff16600073ffffffffffffffffffffffffffffffffffffffff167fddf252ad1be2c89b69c2b068fc378daa952ba7f163c4a11628f55a4df523b3ef60405160405180910390a45050565b6000612eae8473ffffffffffffffffffffffffffffffffffffffff16611c13565b15613017578373ffffffffffffffffffffffffffffffffffffffff1663150b7a02612ed7611e25565b8786866040518563ffffffff1660e01b8152600401612ef994939291906139dd565b602060405180830381600087803b158015612f1357600080fd5b505af1925050508015612f4457506040513d601f19601f82011682018060405250810190612f4191906133d0565b60015b612fc7573d8060008114612f74576040519150601f19603f3d011682016040523d82523d6000602084013e612f79565b606091505b50600081511415612fbf576040517f08c379a0000000000000000000000000000000000000000000000000000000008152600401612fb690613a86565b60405180910390fd5b805181602001fd5b63150b7a0260e01b7bffffffffffffffffffffffffffffffffffffffffffffffffffffffff1916817bffffffffffffffffffffffffffffffffffffffffffffffffffffffff19161491505061301c565b600190505b949350505050565b828054613030906140c1565b90600052602060002090601f0160209004810192826130525760008555613099565b82601f1061306b57805160ff1916838001178555613099565b82800160010185558215613099579182015b8281111561309857825182559160200191906001019061307d565b5b5090506130a691906130aa565b5090565b5b808211156130c35760008160009055506001016130ab565b5090565b60006130da6130d584613e46565b613e21565b9050828152602081018484840111156130f257600080fd5b6130fd84828561407f565b509392505050565b600061311861311384613e77565b613e21565b90508281526020810184848401111561313057600080fd5b61313b84828561407f565b509392505050565b60008135905061315281614973565b92915050565b6000813590506131678161498a565b92915050565b60008135905061317c816149a1565b92915050565b600081519050613191816149a1565b92915050565b600082601f8301126131a857600080fd5b81356131b88482602086016130c7565b91505092915050565b600082601f8301126131d257600080fd5b81356131e2848260208601613105565b91505092915050565b6000813590506131fa816149b8565b92915050565b60006020828403121561321257600080fd5b600061322084828501613143565b91505092915050565b6000806040838503121561323c57600080fd5b600061324a85828601613143565b925050602061325b85828601613143565b9150509250929050565b60008060006060848603121561327a57600080fd5b600061328886828701613143565b935050602061329986828701613143565b92505060406132aa868287016131eb565b9150509250925092565b600080600080608085870312156132ca57600080fd5b60006132d887828801613143565b94505060206132e987828801613143565b93505060406132fa878288016131eb565b925050606085013567ffffffffffffffff81111561331757600080fd5b61332387828801613197565b91505092959194509250565b6000806040838503121561334257600080fd5b600061335085828601613143565b925050602061336185828601613158565b9150509250929050565b6000806040838503121561337e57600080fd5b600061338c85828601613143565b925050602061339d858286016131eb565b9150509250929050565b6000602082840312156133b957600080fd5b60006133c78482850161316d565b91505092915050565b6000602082840312156133e257600080fd5b60006133f084828501613182565b91505092915050565b60006020828403121561340b57600080fd5b600082013567ffffffffffffffff81111561342557600080fd5b613431848285016131c1565b91505092915050565b60006020828403121561344c57600080fd5b600061345a848285016131eb565b91505092915050565b6000806040838503121561347657600080fd5b6000613484858286016131eb565b9250506020613495858286016131eb565b9150509250929050565b6134a88161400b565b82525050565b6134b78161401d565b82525050565b60006134c882613ea8565b6134d28185613ebe565b93506134e281856020860161408e565b6134eb8161425a565b840191505092915050565b600061350182613eb3565b61350b8185613eda565b935061351b81856020860161408e565b6135248161425a565b840191505092915050565b600061353a82613eb3565b6135448185613eeb565b935061355481856020860161408e565b80840191505092915050565b600061356d602b83613eda565b91506135788261426b565b604082019050919050565b6000613590603283613eda565b915061359b826142ba565b604082019050919050565b60006135b3602683613eda565b91506135be82614309565b604082019050919050565b60006135d6601c83613eda565b91506135e182614358565b602082019050919050565b60006135f9602483613eda565b915061360482614381565b604082019050919050565b600061361c601983613eda565b9150613627826143d0565b602082019050919050565b600061363f601d83613eda565b915061364a826143f9565b602082019050919050565b6000613662602c83613eda565b915061366d82614422565b604082019050919050565b6000613685603883613eda565b915061369082614471565b604082019050919050565b60006136a8602a83613eda565b91506136b3826144c0565b604082019050919050565b60006136cb602983613eda565b91506136d68261450f565b604082019050919050565b60006136ee602683613eda565b91506136f98261455e565b604082019050919050565b6000613711602083613eda565b915061371c826145ad565b602082019050919050565b6000613734602c83613eda565b915061373f826145d6565b604082019050919050565b6000613757601883613eda565b915061376282614625565b602082019050919050565b600061377a602083613eda565b91506137858261464e565b602082019050919050565b600061379d600d83613eda565b91506137a882614677565b602082019050919050565b60006137c0602983613eda565b91506137cb826146a0565b604082019050919050565b60006137e3602f83613eda565b91506137ee826146ef565b604082019050919050565b6000613806601983613eda565b91506138118261473e565b602082019050919050565b6000613829602183613eda565b915061383482614767565b604082019050919050565b600061384c601783613eda565b9150613857826147b6565b602082019050919050565b600061386f600083613ecf565b915061387a826147df565b600082019050919050565b6000613892601083613eda565b915061389d826147e2565b602082019050919050565b60006138b5603183613eda565b91506138c08261480b565b604082019050919050565b60006138d8602c83613eda565b91506138e38261485a565b604082019050919050565b60006138fb601a83613eda565b9150613906826148a9565b602082019050919050565b600061391e601f83613eda565b9150613929826148d2565b602082019050919050565b6000613941603083613eda565b915061394c826148fb565b604082019050919050565b6000613964601683613eda565b915061396f8261494a565b602082019050919050565b61398381614075565b82525050565b6000613995828561352f565b91506139a1828461352f565b91508190509392505050565b60006139b882613862565b9150819050919050565b60006020820190506139d7600083018461349f565b92915050565b60006080820190506139f2600083018761349f565b6139ff602083018661349f565b613a0c604083018561397a565b8181036060830152613a1e81846134bd565b905095945050505050565b6000602082019050613a3e60008301846134ae565b92915050565b60006020820190508181036000830152613a5e81846134f6565b905092915050565b60006020820190508181036000830152613a7f81613560565b9050919050565b60006020820190508181036000830152613a9f81613583565b9050919050565b60006020820190508181036000830152613abf816135a6565b9050919050565b60006020820190508181036000830152613adf816135c9565b9050919050565b60006020820190508181036000830152613aff816135ec565b9050919050565b60006020820190508181036000830152613b1f8161360f565b9050919050565b60006020820190508181036000830152613b3f81613632565b9050919050565b60006020820190508181036000830152613b5f81613655565b9050919050565b60006020820190508181036000830152613b7f81613678565b9050919050565b60006020820190508181036000830152613b9f8161369b565b9050919050565b60006020820190508181036000830152613bbf816136be565b9050919050565b60006020820190508181036000830152613bdf816136e1565b9050919050565b60006020820190508181036000830152613bff81613704565b9050919050565b60006020820190508181036000830152613c1f81613727565b9050919050565b60006020820190508181036000830152613c3f8161374a565b9050919050565b60006020820190508181036000830152613c5f8161376d565b9050919050565b60006020820190508181036000830152613c7f81613790565b9050919050565b60006020820190508181036000830152613c9f816137b3565b9050919050565b60006020820190508181036000830152613cbf816137d6565b9050919050565b60006020820190508181036000830152613cdf816137f9565b9050919050565b60006020820190508181036000830152613cff8161381c565b9050919050565b60006020820190508181036000830152613d1f8161383f565b9050919050565b60006020820190508181036000830152613d3f81613885565b9050919050565b60006020820190508181036000830152613d5f816138a8565b9050919050565b60006020820190508181036000830152613d7f816138cb565b9050919050565b60006020820190508181036000830152613d9f816138ee565b9050919050565b60006020820190508181036000830152613dbf81613911565b9050919050565b60006020820190508181036000830152613ddf81613934565b9050919050565b60006020820190508181036000830152613dff81613957565b9050919050565b6000602082019050613e1b600083018461397a565b92915050565b6000613e2b613e3c565b9050613e3782826140f3565b919050565b6000604051905090565b600067ffffffffffffffff821115613e6157613e6061422b565b5b613e6a8261425a565b9050602081019050919050565b600067ffffffffffffffff821115613e9257613e9161422b565b5b613e9b8261425a565b9050602081019050919050565b600081519050919050565b600081519050919050565b600082825260208201905092915050565b600081905092915050565b600082825260208201905092915050565b600081905092915050565b6000613f0182614075565b9150613f0c83614075565b9250827fffffffffffffffffffffffffffffffffffffffffffffffffffffffffffffffff03821115613f4157613f4061419e565b5b828201905092915050565b6000613f5782614075565b9150613f6283614075565b925082613f7257613f716141cd565b5b828204905092915050565b6000613f8882614075565b9150613f9383614075565b9250817fffffffffffffffffffffffffffffffffffffffffffffffffffffffffffffffff0483118215151615613fcc57613fcb61419e565b5b828202905092915050565b6000613fe282614075565b9150613fed83614075565b92508282101561400057613fff61419e565b5b828203905092915050565b600061401682614055565b9050919050565b60008115159050919050565b60007fffffffff0000000000000000000000000000000000000000000000000000000082169050919050565b600073ffffffffffffffffffffffffffffffffffffffff82169050919050565b6000819050919050565b82818337600083830152505050565b60005b838110156140ac578082015181840152602081019050614091565b838111156140bb576000848401525b50505050565b600060028204905060018216806140d957607f821691505b602082108114156140ed576140ec6141fc565b5b50919050565b6140fc8261425a565b810181811067ffffffffffffffff8211171561411b5761411a61422b565b5b80604052505050565b600061412f82614075565b91507fffffffffffffffffffffffffffffffffffffffffffffffffffffffffffffffff8214156141625761416161419e565b5b600182019050919050565b600061417882614075565b915061418383614075565b925082614193576141926141cd565b5b828206905092915050565b7f4e487b7100000000000000000000000000000000000000000000000000000000600052601160045260246000fd5b7f4e487b7100000000000000000000000000000000000000000000000000000000600052601260045260246000fd5b7f4e487b7100000000000000000000000000000000000000000000000000000000600052602260045260246000fd5b7f4e487b7100000000000000000000000000000000000000000000000000000000600052604160045260246000fd5b6000601f19601f8301169050919050565b7f455243373231456e756d657261626c653a206f776e657220696e646578206f7560008201527f74206f6620626f756e6473000000000000000000000000000000000000000000602082015250565b7f4552433732313a207472616e7366657220746f206e6f6e20455243373231526560008201527f63656976657220696d706c656d656e7465720000000000000000000000000000602082015250565b7f4f776e61626c653a206e6577206f776e657220697320746865207a65726f206160008201527f6464726573730000000000000000000000000000000000000000000000000000602082015250565b7f4552433732313a20746f6b656e20616c7265616479206d696e74656400000000600082015250565b7f4552433732313a207472616e7366657220746f20746865207a65726f2061646460008201527f7265737300000000000000000000000000000000000000000000000000000000602082015250565b7f4552433732313a20617070726f766520746f2063616c6c657200000000000000600082015250565b7f537065726d206d75737420626520666f722073616c6520746f20627579000000600082015250565b7f4552433732313a206f70657261746f7220717565727920666f72206e6f6e657860008201527f697374656e7420746f6b656e0000000000000000000000000000000000000000602082015250565b7f4552433732313a20617070726f76652063616c6c6572206973206e6f74206f7760008201527f6e6572206e6f7220617070726f76656420666f7220616c6c0000000000000000602082015250565b7f4552433732313a2062616c616e636520717565727920666f7220746865207a6560008201527f726f206164647265737300000000000000000000000000000000000000000000602082015250565b7f4552433732313a206f776e657220717565727920666f72206e6f6e657869737460008201527f656e7420746f6b656e0000000000000000000000000000000000000000000000602082015250565b7f4f6e6c7920323020537065726d732063616e206265206d696e7465642061742060008201527f612074696d650000000000000000000000000000000000000000000000000000602082015250565b7f4552433732313a206d696e7420746f20746865207a65726f2061646472657373600082015250565b7f4552433732313a20617070726f76656420717565727920666f72206e6f6e657860008201527f697374656e7420746f6b656e0000000000000000000000000000000000000000602082015250565b7f4d757374206f776e20537065726d20746f2064656c6973740000000000000000600082015250565b7f4f776e61626c653a2063616c6c6572206973206e6f7420746865206f776e6572600082015250565b7f5072696365206e6f74206d657400000000000000000000000000000000000000600082015250565b7f4552433732313a207472616e73666572206f6620746f6b656e2074686174206960008201527f73206e6f74206f776e0000000000000000000000000000000000000000000000602082015250565b7f4552433732314d657461646174613a2055524920717565727920666f72206e6f60008201527f6e6578697374656e7420746f6b656e0000000000000000000000000000000000602082015250565b7f4d7573742070617920656e6f75676820666f7220537065726d00000000000000600082015250565b7f4552433732313a20617070726f76616c20746f2063757272656e74206f776e6560008201527f7200000000000000000000000000000000000000000000000000000000000000602082015250565b7f4d61726b6574706c6163652069732064697361626c6564000000000000000000600082015250565b50565b7f5472616e73666572206661696c65642e00000000000000000000000000000000600082015250565b7f4552433732313a207472616e736665722063616c6c6572206973206e6f74206f60008201527f776e6572206e6f7220617070726f766564000000000000000000000000000000602082015250565b7f455243373231456e756d657261626c653a20676c6f62616c20696e646578206f60008201527f7574206f6620626f756e64730000000000000000000000000000000000000000602082015250565b7f4d696e7420616d6f756e74206578636565647320737570706c79000000000000600082015250565b7f5265656e7472616e637947756172643a207265656e7472616e742063616c6c00600082015250565b7f4552433732314275726e61626c653a2063616c6c6572206973206e6f74206f7760008201527f6e6572206e6f7220617070726f76656400000000000000000000000000000000602082015250565b7f4d757374206f776e20537065726d20746f2073656c6c00000000000000000000600082015250565b61497c8161400b565b811461498757600080fd5b50565b6149938161401d565b811461499e57600080fd5b50565b6149aa81614029565b81146149b557600080fd5b50565b6149c181614075565b81146149cc57600080fd5b5056fea264697066735822122075a837a3187b35e608cbbe5d5525d4d51b0e53deef7143e6f6cda32bd2eac20664736f6c63430008020033697066733a2f2f516d53383139716d415a6931733166455839583158773744776f4c624e58676467374c485a71646f7854415035372f",
  "deployedBytecode": "55196:4579:0:-:0;;;;;;;;;;;;;;;;;;;;;;;;;;;;;;;;;;;;;;;;;;;;;;;;;;;;;;;;;;;;;;;;;;;;;;;;;;;;;;;;;;;;;;;;;;;;;;;;;;;;;;;;;;;;;;;;;;;;;;;;;;;;;;;;;;;;;;;;;;;;;;;;;;;;;;;;;;;;;;;;;;;;;;;;;;;;;;;;;;;;;;;;;;;;;;;;;;;;;;;;;;;;;;;;;;;;;;;;;;;;;;;;;;;;;;;;;;;;;57481:179;;;;;;;;;;;;;;;;;;;;;;;:::i;:::-;;:::i;:::-;;;;;;;:::i;:::-;;;;;;;;24087:100;;;;;;;;;;;;;:::i;:::-;;;;;;;:::i;:::-;;;;;;;;25646:221;;;;;;;;;;;;;;;;;;;;;;;:::i;:::-;;:::i;:::-;;;;;;;:::i;:::-;;;;;;;;25169:411;;;;;;;;;;;;;;;;;;;;;;;:::i;:::-;;:::i;:::-;;38541:113;;;;;;;;;;;;;:::i;:::-;;;;;;;:::i;:::-;;;;;;;;57839:101;;;;;;;;;;;;;:::i;:::-;;59052:221;;;;;;;;;;;;;;;;;;;;;;;:::i;:::-;;:::i;:::-;;58077:261;;;;;;;;;;;;;;;;;;;;;;;:::i;:::-;;:::i;:::-;;38209:256;;;;;;;;;;;;;;;;;;;;;;;:::i;:::-;;:::i;:::-;;;;;;;:::i;:::-;;;;;;;;56091:110;;;;;;;;;;;;;;;;;;;;;;;:::i;:::-;;:::i;:::-;;57074:168;;;;;;;;;;;;;:::i;:::-;;55514:40;;;;;;;;;;;;;:::i;:::-;;;;;;;:::i;:::-;;;;;;;;59281:227;;;;;;;;;;;;;;;;;;;;;;;:::i;:::-;;:::i;:::-;;35724:245;;;;;;;;;;;;;;;;;;;;;;;:::i;:::-;;:::i;:::-;;38731:233;;;;;;;;;;;;;;;;;;;;;;;:::i;:::-;;:::i;:::-;;;;;;;:::i;:::-;;;;;;;;55749:77;;;;;;;;;;;;;:::i;:::-;;;;;;;:::i;:::-;;;;;;;;58550:465;;;;;;;;;;;;;:::i;:::-;;:::i;:::-;;23781:239;;;;;;;;;;;;;;;;;;;;;;;:::i;:::-;;:::i;:::-;;;;;;;:::i;:::-;;;;;;;;55616:34;;;;;;;;;;;;;:::i;:::-;;;;;;;:::i;:::-;;;;;;;;23511:208;;;;;;;;;;;;;;;;;;;;;;;:::i;:::-;;:::i;:::-;;;;;;;:::i;:::-;;;;;;;;58346:196;;;;;;;;;;;;;;;;;;;;;;;:::i;:::-;;:::i;:::-;;2683:94;;;;;;;;;;;;;:::i;:::-;;2032:87;;;;;;;;;;;;;:::i;:::-;;;;;;;:::i;:::-;;;;;;;;24256:104;;;;;;;;;;;;;:::i;:::-;;;;;;;:::i;:::-;;;;;;;;56209:603;;;;;;;;;;;;;:::i;:::-;;:::i;:::-;;25939:295;;;;;;;;;;;;;;;;;;;;;;;:::i;:::-;;:::i;:::-;;59516:254;;;;;;;;;;;;;;;;;;;;;;;:::i;:::-;;:::i;:::-;;24431:334;;;;;;;;;;;;;;;;;;;;;;;:::i;:::-;;:::i;:::-;;;;;;;:::i;:::-;;;;;;;;56820:246;;;;;;;;;;;;;;;;;;;;;;;:::i;:::-;;:::i;:::-;;55561:46;;;;;;;;;;;;;:::i;:::-;;;;;;;:::i;:::-;;;;;;;;55659:44;;;;;;;;;;;;;;;;;;;;;;;:::i;:::-;;:::i;:::-;;;;;;;:::i;:::-;;;;;;;;26305:164;;;;;;;;;;;;;;;;;;;;;;;:::i;:::-;;:::i;:::-;;;;;;;:::i;:::-;;;;;;;;2932:192;;;;;;;;;;;;;;;;;;;;;;;:::i;:::-;;:::i;:::-;;57481:179;57592:4;57616:36;57640:11;57616:23;:36::i;:::-;57609:43;;57481:179;;;:::o;24087:100::-;24141:13;24174:5;24167:12;;;;;:::i;:::-;;;;;;;;;;;;;;;;;;;;;;;;;;;;;;;;;:::i;:::-;;;;;;;;;;;;;;;;;;;;;;;;;;;;;;;;;;;;;;;;;;;;;;;;;;;;;;;;;;;;;;;;;;;24087:100;:::o;25646:221::-;25722:7;25750:16;25758:7;25750;:16::i;:::-;25742:73;;;;;;;;;;;;:::i;:::-;;;;;;;;;25835:15;:24;25851:7;25835:24;;;;;;;;;;;;;;;;;;;;;25828:31;;25646:221;;;:::o;25169:411::-;25250:13;25266:23;25281:7;25266:14;:23::i;:::-;25250:39;;25314:5;25308:11;;:2;:11;;;;25300:57;;;;;;;;;;;;:::i;:::-;;;;;;;;;25408:5;25392:21;;:12;:10;:12::i;:::-;:21;;;:62;;;;25417:37;25434:5;25441:12;:10;:12::i;:::-;25417:16;:37::i;:::-;25392:62;25370:168;;;;;;;;;;;;:::i;:::-;;;;;;;;;25551:21;25560:2;25564:7;25551:8;:21::i;:::-;25169:411;;;:::o;38541:113::-;38602:7;38629:10;:17;;;;38622:24;;38541:113;:::o;57839:101::-;2263:12;:10;:12::i;:::-;2252:23;;:7;:5;:7::i;:::-;:23;;;2244:68;;;;;;;;;;;;:::i;:::-;;;;;;;;;57917:15:::1;;;;;;;;;;;57916:16;57898:15;;:34;;;;;;;;;;;;;;;;;;57839:101::o:0;59052:221::-;59168:1;59147:8;:17;59156:7;59147:17;;;;;;;;;;;;:22;59144:74;;59186:20;59198:7;59186:11;:20::i;:::-;59144:74;59228:37;59247:4;59253:2;59257:7;59228:18;:37::i;:::-;59052:221;;;:::o;58077:261::-;57768:15;;;;;;;;;;;57760:51;;;;;;;;;;;;:::i;:::-;;;;;;;;;58184:16:::1;58192:7;58184;:16::i;:::-;58170:30;;:10;:30;;;58162:65;;;;;;;;;;;;:::i;:::-;;;;;;;;;58254:1;58246:5;:9;58238:18;;;::::0;::::1;;58289:5;58269:8;:17;58278:7;58269:17;;;;;;;;;;;:25;;;;58315:7;58310:20;58324:5;58310:20;;;;;;:::i;:::-;;;;;;;;58077:261:::0;;:::o;38209:256::-;38306:7;38342:23;38359:5;38342:16;:23::i;:::-;38334:5;:31;38326:87;;;;;;;;;;;;:::i;:::-;;;;;;;;;38431:12;:19;38444:5;38431:19;;;;;;;;;;;;;;;:26;38451:5;38431:26;;;;;;;;;;;;38424:33;;38209:256;;;;:::o;56091:110::-;2263:12;:10;:12::i;:::-;2252:23;;:7;:5;:7::i;:::-;:23;;;2244:68;;;;;;;;;;;;:::i;:::-;;;;;;;;;56180:13:::1;56173:4;:20;;;;;;;;;;;;:::i;:::-;;56091:110:::0;:::o;57074:168::-;2263:12;:10;:12::i;:::-;2252:23;;:7;:5;:7::i;:::-;:23;;;2244:68;;;;;;;;;;;;:::i;:::-;;;;;;;;;57123:12:::1;57141:7;:5;:7::i;:::-;:12;;57161:21;57141:46;;;;;:::i;:::-;;;;;;;;;;;;;;;;;;;;;;;;;;;;;;;;;;;;;;;;;;;;;;;;;;;;;;57122:65;;;57206:7;57198:36;;;;;;;;;;;;:::i;:::-;;;;;;;;;2323:1;57074:168::o:0;55514:40::-;55551:3;55514:40;:::o;59281:227::-;59399:1;59378:8;:17;59387:7;59378:17;;;;;;;;;;;;:22;59375:74;;59417:20;59429:7;59417:11;:20::i;:::-;59375:74;59459:41;59482:4;59488:2;59492:7;59459:22;:41::i;:::-;59281:227;;;:::o;35724:245::-;35842:41;35861:12;:10;:12::i;:::-;35875:7;35842:18;:41::i;:::-;35834:102;;;;;;;;;;;;:::i;:::-;;;;;;;;;35947:14;35953:7;35947:5;:14::i;:::-;35724:245;:::o;38731:233::-;38806:7;38842:30;:28;:30::i;:::-;38834:5;:38;38826:95;;;;;;;;;;;;:::i;:::-;;;;;;;;;38939:10;38950:5;38939:17;;;;;;;;;;;;;;;;;;;;;;;;38932:24;;38731:233;;;:::o;55749:77::-;;;;;;;:::i;:::-;;;;;;;;;;;;;;;;;;;;;;;;;;;;;;;;;:::i;:::-;;;;;;;;;;;;;;;;;;;;;;;;;;;;;;;;;;;;;;;;;;;;;;;;;;;;;;;;;;;;;;;;;;:::o;58550:465::-;52761:1;53357:7;;:19;;53349:63;;;;;;;;;;;;:::i;:::-;;;;;;;;;52761:1;53490:7;:18;;;;57768:15:::1;;;;;;;;;;;57760:51;;;;;;;;;;;;:::i;:::-;;;;;;;;;58668:1:::2;58648:8;:17;58657:7;58648:17;;;;;;;;;;;;:21;58640:63;;;;;;;;;;;;:::i;:::-;;;;;;;;;58735:8;:17;58744:7;58735:17;;;;;;;;;;;;58722:9;:30;;58714:68;;;;;;;;;;;;:::i;:::-;;;;;;;;;58795:16;58814;58822:7;58814;:16::i;:::-;58795:35;;58841:40;58851:8;58861:10;58873:7;58841:9;:40::i;:::-;58912:1;58892:8;:17;58901:7;58892:17;;;;;;;;;;;:21;;;;58927:12;58945:8;:13;;58966:9;58945:35;;;;;:::i;:::-;;;;;;;;;;;;;;;;;;;;;;;;;;;;;;;;;;;;;;;;;;;;;;;;;;;;;;58926:54;;;58999:7;58991:16;;;::::0;::::2;;57822:1;;52717::::0;53669:7;:22;;;;58550:465;:::o;23781:239::-;23853:7;23873:13;23889:7;:16;23897:7;23889:16;;;;;;;;;;;;;;;;;;;;;23873:32;;23941:1;23924:19;;:5;:19;;;;23916:73;;;;;;;;;;;;:::i;:::-;;;;;;;;;24007:5;24000:12;;;23781:239;;;:::o;55616:34::-;;;;;;;;;;;;;:::o;23511:208::-;23583:7;23628:1;23611:19;;:5;:19;;;;23603:74;;;;;;;;;;;;:::i;:::-;;;;;;;;;23695:9;:16;23705:5;23695:16;;;;;;;;;;;;;;;;23688:23;;23511:208;;;:::o;58346:196::-;58424:16;58432:7;58424;:16::i;:::-;58410:30;;:10;:30;;;58402:67;;;;;;;;;;;;:::i;:::-;;;;;;;;;58502:1;58482:8;:17;58491:7;58482:17;;;;;;;;;;;:21;;;;58526:7;58519:15;;;;;;;;;;58346:196;:::o;2683:94::-;2263:12;:10;:12::i;:::-;2252:23;;:7;:5;:7::i;:::-;:23;;;2244:68;;;;;;;;;;;;:::i;:::-;;;;;;;;;2748:21:::1;2766:1;2748:9;:21::i;:::-;2683:94::o:0;2032:87::-;2078:7;2105:6;;;;;;;;;;;2098:13;;2032:87;:::o;24256:104::-;24312:13;24345:7;24338:14;;;;;:::i;:::-;;;;;;;;;;;;;;;;;;;;;;;;;;;;;;;;;:::i;:::-;;;;;;;;;;;;;;;;;;;;;;;;;;;;;;;;;;;;;;;;;;;;;;;;;;;;;;;;;;;;;;;;;;;24256:104;:::o;56209:603::-;56277:14;56294:25;:15;:23;:25::i;:::-;56277:42;;56352:2;56338:10;:16;;56330:67;;;;;;;;;;;;:::i;:::-;;;;;;;;;55551:3;56425:10;56416:6;:19;;;;:::i;:::-;:33;;56408:72;;;;;;;;;;;;:::i;:::-;;;;;;;;;56524:10;55596:11;56513:21;;;;:::i;:::-;56500:9;:34;;:65;;;;;56561:4;56547:10;56538:6;:19;;;;:::i;:::-;:27;;56500:65;56499:111;;;;56608:1;56595:10;55596:11;56584:21;;;;:::i;:::-;:25;;;;:::i;:::-;56571:9;:38;;56499:111;56491:137;;;;;;;;;;;;:::i;:::-;;;;;;;;;56645:6;56641:154;56661:10;56657:1;:14;56641:154;;;56693:48;56703:10;56715:25;:15;:23;:25::i;:::-;56693:9;:48::i;:::-;56756:27;:15;:25;:27::i;:::-;56673:3;;;;;:::i;:::-;;;;56641:154;;;;56209:603;;:::o;25939:295::-;26054:12;:10;:12::i;:::-;26042:24;;:8;:24;;;;26034:62;;;;;;;;;;;;:::i;:::-;;;;;;;;;26154:8;26109:18;:32;26128:12;:10;:12::i;:::-;26109:32;;;;;;;;;;;;;;;:42;26142:8;26109:42;;;;;;;;;;;;;;;;:53;;;;;;;;;;;;;;;;;;26207:8;26178:48;;26193:12;:10;:12::i;:::-;26178:48;;;26217:8;26178:48;;;;;;:::i;:::-;;;;;;;;25939:295;;:::o;59516:254::-;59654:1;59633:8;:17;59642:7;59633:17;;;;;;;;;;;;:22;59630:74;;59672:20;59684:7;59672:11;:20::i;:::-;59630:74;59714:48;59737:4;59743:2;59747:7;59756:5;59714:22;:48::i;:::-;59516:254;;;;:::o;24431:334::-;24504:13;24538:16;24546:7;24538;:16::i;:::-;24530:76;;;;;;;;;;;;:::i;:::-;;;;;;;;;24619:21;24643:10;:8;:10::i;:::-;24619:34;;24695:1;24677:7;24671:21;:25;:86;;;;;;;;;;;;;;;;;24723:7;24732:18;:7;:16;:18::i;:::-;24706:45;;;;;;;;;:::i;:::-;;;;;;;;;;;;;24671:86;24664:93;;;24431:334;;;:::o;56820:246::-;2263:12;:10;:12::i;:::-;2252:23;;:7;:5;:7::i;:::-;:23;;;2244:68;;;;;;;;;;;;:::i;:::-;;;;;;;;;56908:6:::1;56903:156;56924:14;56920:1;:18;56903:156;;;56960:45;56970:7;:5;:7::i;:::-;56979:25;:15;:23;:25::i;:::-;56960:9;:45::i;:::-;57020:27;:15;:25;:27::i;:::-;56940:3;;;;;:::i;:::-;;;;56903:156;;;;56820:246:::0;:::o;55561:46::-;55596:11;55561:46;:::o;55659:44::-;;;;;;;;;;;;;;;;;:::o;26305:164::-;26402:4;26426:18;:25;26445:5;26426:25;;;;;;;;;;;;;;;:35;26452:8;26426:35;;;;;;;;;;;;;;;;;;;;;;;;;26419:42;;26305:164;;;;:::o;2932:192::-;2263:12;:10;:12::i;:::-;2252:23;;:7;:5;:7::i;:::-;:23;;;2244:68;;;;;;;;;;;;:::i;:::-;;;;;;;;;3041:1:::1;3021:22;;:8;:22;;;;3013:73;;;;;;;;;;;;:::i;:::-;;;;;;;;;3097:19;3107:8;3097:9;:19::i;:::-;2932:192:::0;:::o;54527:114::-;54592:7;54619;:14;;;54612:21;;54527:114;;;:::o;54649:127::-;54756:1;54738:7;:14;;;:19;;;;;;;;;;;54649:127;:::o;11439:387::-;11499:4;11707:12;11774:7;11762:20;11754:28;;11817:1;11810:4;:8;11803:15;;;11439:387;;;:::o;39577:589::-;39721:45;39748:4;39754:2;39758:7;39721:26;:45::i;:::-;39799:1;39783:18;;:4;:18;;;39779:187;;;39818:40;39850:7;39818:31;:40::i;:::-;39779:187;;;39888:2;39880:10;;:4;:10;;;39876:90;;39907:47;39940:4;39946:7;39907:32;:47::i;:::-;39876:90;39779:187;39994:1;39980:16;;:2;:16;;;39976:183;;;40013:45;40050:7;40013:36;:45::i;:::-;39976:183;;;40086:4;40080:10;;:2;:10;;;40076:83;;40107:40;40135:2;40139:7;40107:27;:40::i;:::-;40076:83;39976:183;39577:589;;;:::o;35132:126::-;;;;:::o;37901:224::-;38003:4;38042:35;38027:50;;;:11;:50;;;;:90;;;;38081:36;38105:11;38081:23;:36::i;:::-;38027:90;38020:97;;37901:224;;;:::o;29040:127::-;29105:4;29157:1;29129:30;;:7;:16;29137:7;29129:16;;;;;;;;;;;;;;;;;;;;;:30;;;;29122:37;;29040:127;;;:::o;818:98::-;871:7;898:10;891:17;;818:98;:::o;33022:174::-;33124:2;33097:15;:24;33113:7;33097:24;;;;;;;;;;;;:29;;;;;;;;;;;;;;;;;;33180:7;33176:2;33142:46;;33151:23;33166:7;33151:14;:23::i;:::-;33142:46;;;;;;;;;;;;33022:174;;:::o;26536:339::-;26731:41;26750:12;:10;:12::i;:::-;26764:7;26731:18;:41::i;:::-;26723:103;;;;;;;;;;;;:::i;:::-;;;;;;;;;26839:28;26849:4;26855:2;26859:7;26839:9;:28::i;:::-;26536:339;;;:::o;26946:185::-;27084:39;27101:4;27107:2;27111:7;27084:39;;;;;;;;;;;;:16;:39::i;:::-;26946:185;;;:::o;29334:348::-;29427:4;29452:16;29460:7;29452;:16::i;:::-;29444:73;;;;;;;;;;;;:::i;:::-;;;;;;;;;29528:13;29544:23;29559:7;29544:14;:23::i;:::-;29528:39;;29597:5;29586:16;;:7;:16;;;:51;;;;29630:7;29606:31;;:20;29618:7;29606:11;:20::i;:::-;:31;;;29586:51;:87;;;;29641:32;29658:5;29665:7;29641:16;:32::i;:::-;29586:87;29578:96;;;29334:348;;;;:::o;31629:360::-;31689:13;31705:23;31720:7;31705:14;:23::i;:::-;31689:39;;31741:48;31762:5;31777:1;31781:7;31741:20;:48::i;:::-;31830:29;31847:1;31851:7;31830:8;:29::i;:::-;31892:1;31872:9;:16;31882:5;31872:16;;;;;;;;;;;;;;;;:21;;;;;;;:::i;:::-;;;;;;;;31911:7;:16;31919:7;31911:16;;;;;;;;;;;;31904:23;;;;;;;;;;;31973:7;31969:1;31945:36;;31954:5;31945:36;;;;;;;;;;;;31629:360;;:::o;32326:578::-;32485:4;32458:31;;:23;32473:7;32458:14;:23::i;:::-;:31;;;32450:85;;;;;;;;;;;;:::i;:::-;;;;;;;;;32568:1;32554:16;;:2;:16;;;;32546:65;;;;;;;;;;;;:::i;:::-;;;;;;;;;32624:39;32645:4;32651:2;32655:7;32624:20;:39::i;:::-;32728:29;32745:1;32749:7;32728:8;:29::i;:::-;32789:1;32770:9;:15;32780:4;32770:15;;;;;;;;;;;;;;;;:20;;;;;;;:::i;:::-;;;;;;;;32818:1;32801:9;:13;32811:2;32801:13;;;;;;;;;;;;;;;;:18;;;;;;;:::i;:::-;;;;;;;;32849:2;32830:7;:16;32838:7;32830:16;;;;;;;;;;;;:21;;;;;;;;;;;;;;;;;;32888:7;32884:2;32869:27;;32878:4;32869:27;;;;;;;;;;;;32326:578;;;:::o;3132:173::-;3188:16;3207:6;;;;;;;;;;;3188:25;;3233:8;3224:6;;:17;;;;;;;;;;;;;;;;;;3288:8;3257:40;;3278:8;3257:40;;;;;;;;;;;;3132:173;;:::o;30024:110::-;30100:26;30110:2;30114:7;30100:26;;;;;;;;;;;;:9;:26::i;:::-;30024:110;;:::o;27202:328::-;27377:41;27396:12;:10;:12::i;:::-;27410:7;27377:18;:41::i;:::-;27369:103;;;;;;;;;;;;:::i;:::-;;;;;;;;;27483:39;27497:4;27503:2;27507:7;27516:5;27483:13;:39::i;:::-;27202:328;;;;:::o;55987:96::-;56038:13;56071:4;56064:11;;;;;:::i;:::-;;;;;;;;;;;;;;;;;;;;;;;;;;;;;;;;;:::i;:::-;;;;;;;;;;;;;;;;;;;;;;;;;;;;;;;;;;;;;;;;;;;;;;;;;;;;;;;;;;;;;;;;;;;55987:96;:::o;19085:723::-;19141:13;19371:1;19362:5;:10;19358:53;;;19389:10;;;;;;;;;;;;;;;;;;;;;19358:53;19421:12;19436:5;19421:20;;19452:14;19477:78;19492:1;19484:4;:9;19477:78;;19510:8;;;;;:::i;:::-;;;;19541:2;19533:10;;;;;:::i;:::-;;;19477:78;;;19565:19;19597:6;19587:17;;;;;;;;;;;;;;;;;;;;;;;;;;;;;;;;;;;;;;;;;;;;;;;;;;;;;;;;;;19565:39;;19615:154;19631:1;19622:5;:10;19615:154;;19659:1;19649:11;;;;;:::i;:::-;;;19726:2;19718:5;:10;;;;:::i;:::-;19705:2;:24;;;;:::i;:::-;19692:39;;19675:6;19682;19675:14;;;;;;;;;;;;;;;;;;;:56;;;;;;;;;;;19755:2;19746:11;;;;;:::i;:::-;;;19615:154;;;19793:6;19779:21;;;;;19085:723;;;;:::o;40889:164::-;40993:10;:17;;;;40966:15;:24;40982:7;40966:24;;;;;;;;;;;:44;;;;41021:10;41037:7;41021:24;;;;;;;;;;;;;;;;;;;;;;;;;;;;;;;;40889:164;:::o;41680:988::-;41946:22;41996:1;41971:22;41988:4;41971:16;:22::i;:::-;:26;;;;:::i;:::-;41946:51;;42008:18;42029:17;:26;42047:7;42029:26;;;;;;;;;;;;42008:47;;42176:14;42162:10;:28;42158:328;;42207:19;42229:12;:18;42242:4;42229:18;;;;;;;;;;;;;;;:34;42248:14;42229:34;;;;;;;;;;;;42207:56;;42313:11;42280:12;:18;42293:4;42280:18;;;;;;;;;;;;;;;:30;42299:10;42280:30;;;;;;;;;;;:44;;;;42430:10;42397:17;:30;42415:11;42397:30;;;;;;;;;;;:43;;;;42158:328;;42582:17;:26;42600:7;42582:26;;;;;;;;;;;42575:33;;;42626:12;:18;42639:4;42626:18;;;;;;;;;;;;;;;:34;42645:14;42626:34;;;;;;;;;;;42619:41;;;41680:988;;;;:::o;42963:1079::-;43216:22;43261:1;43241:10;:17;;;;:21;;;;:::i;:::-;43216:46;;43273:18;43294:15;:24;43310:7;43294:24;;;;;;;;;;;;43273:45;;43645:19;43667:10;43678:14;43667:26;;;;;;;;;;;;;;;;;;;;;;;;43645:48;;43731:11;43706:10;43717;43706:22;;;;;;;;;;;;;;;;;;;;;;;:36;;;;43842:10;43811:15;:28;43827:11;43811:28;;;;;;;;;;;:41;;;;43983:15;:24;43999:7;43983:24;;;;;;;;;;;43976:31;;;44018:10;:16;;;;;;;;;;;;;;;;;;;;;;;;;;;;;;;;42963:1079;;;;:::o;40467:221::-;40552:14;40569:20;40586:2;40569:16;:20::i;:::-;40552:37;;40627:7;40600:12;:16;40613:2;40600:16;;;;;;;;;;;;;;;:24;40617:6;40600:24;;;;;;;;;;;:34;;;;40674:6;40645:17;:26;40663:7;40645:26;;;;;;;;;;;:35;;;;40467:221;;;:::o;23142:305::-;23244:4;23296:25;23281:40;;;:11;:40;;;;:105;;;;23353:33;23338:48;;;:11;:48;;;;23281:105;:158;;;;23403:36;23427:11;23403:23;:36::i;:::-;23281:158;23261:178;;23142:305;;;:::o;57250:223::-;57420:45;57447:4;57453:2;57457:7;57420:26;:45::i;:::-;57250:223;;;:::o;30361:321::-;30491:18;30497:2;30501:7;30491:5;:18::i;:::-;30542:54;30573:1;30577:2;30581:7;30590:5;30542:22;:54::i;:::-;30520:154;;;;;;;;;;;;:::i;:::-;;;;;;;;;30361:321;;;:::o;28412:315::-;28569:28;28579:4;28585:2;28589:7;28569:9;:28::i;:::-;28616:48;28639:4;28645:2;28649:7;28658:5;28616:22;:48::i;:::-;28608:111;;;;;;;;;;;;:::i;:::-;;;;;;;;;28412:315;;;;:::o;21644:157::-;21729:4;21768:25;21753:40;;;:11;:40;;;;21746:47;;21644:157;;;:::o;31018:382::-;31112:1;31098:16;;:2;:16;;;;31090:61;;;;;;;;;;;;:::i;:::-;;;;;;;;;31171:16;31179:7;31171;:16::i;:::-;31170:17;31162:58;;;;;;;;;;;;:::i;:::-;;;;;;;;;31233:45;31262:1;31266:2;31270:7;31233:20;:45::i;:::-;31308:1;31291:9;:13;31301:2;31291:13;;;;;;;;;;;;;;;;:18;;;;;;;:::i;:::-;;;;;;;;31339:2;31320:7;:16;31328:7;31320:16;;;;;;;;;;;;:21;;;;;;;;;;;;;;;;;;31384:7;31380:2;31359:33;;31376:1;31359:33;;;;;;;;;;;;31018:382;;:::o;33761:799::-;33916:4;33937:15;:2;:13;;;:15::i;:::-;33933:620;;;33989:2;33973:36;;;34010:12;:10;:12::i;:::-;34024:4;34030:7;34039:5;33973:72;;;;;;;;;;;;;;;;;;:::i;:::-;;;;;;;;;;;;;;;;;;;;;;;;;;;;;;;;;;;;;;;;;;;;;;;;;;;;;;;:::i;:::-;;;33969:529;;;;;;;;;;;;;;;;;;;;;;;;;;;;;;;;;;;;;;;;34232:1;34215:6;:13;:18;34211:272;;;34258:60;;;;;;;;;;:::i;:::-;;;;;;;;34211:272;34433:6;34427:13;34418:6;34414:2;34410:15;34403:38;33969:529;34106:41;;;34096:51;;;:6;:51;;;;34089:58;;;;;33933:620;34537:4;34530:11;;33761:799;;;;;;;:::o;-1:-1:-1:-;;;;;;;:::i;:::-;;;;;;;;;;;;;;;;;;;;;;;;;;;;;;;;;;;;;;;;;;;;;;;;;;;;;;;;;;;;;;;;;;;;;;;;;;;;;;;;;;;;;;;;:::i;:::-;;;:::o;:::-;;;;;;;;;;;;;;;;;;;;;:::o;7:343:1:-;;109:65;125:48;166:6;125:48;:::i;:::-;109:65;:::i;:::-;100:74;;197:6;190:5;183:21;235:4;228:5;224:16;273:3;264:6;259:3;255:16;252:25;249:2;;;290:1;287;280:12;249:2;303:41;337:6;332:3;327;303:41;:::i;:::-;90:260;;;;;;:::o;356:345::-;;459:66;475:49;517:6;475:49;:::i;:::-;459:66;:::i;:::-;450:75;;548:6;541:5;534:21;586:4;579:5;575:16;624:3;615:6;610:3;606:16;603:25;600:2;;;641:1;638;631:12;600:2;654:41;688:6;683:3;678;654:41;:::i;:::-;440:261;;;;;;:::o;707:139::-;;791:6;778:20;769:29;;807:33;834:5;807:33;:::i;:::-;759:87;;;;:::o;852:133::-;;933:6;920:20;911:29;;949:30;973:5;949:30;:::i;:::-;901:84;;;;:::o;991:137::-;;1074:6;1061:20;1052:29;;1090:32;1116:5;1090:32;:::i;:::-;1042:86;;;;:::o;1134:141::-;;1221:6;1215:13;1206:22;;1237:32;1263:5;1237:32;:::i;:::-;1196:79;;;;:::o;1294:271::-;;1398:3;1391:4;1383:6;1379:17;1375:27;1365:2;;1416:1;1413;1406:12;1365:2;1456:6;1443:20;1481:78;1555:3;1547:6;1540:4;1532:6;1528:17;1481:78;:::i;:::-;1472:87;;1355:210;;;;;:::o;1585:273::-;;1690:3;1683:4;1675:6;1671:17;1667:27;1657:2;;1708:1;1705;1698:12;1657:2;1748:6;1735:20;1773:79;1848:3;1840:6;1833:4;1825:6;1821:17;1773:79;:::i;:::-;1764:88;;1647:211;;;;;:::o;1864:139::-;;1948:6;1935:20;1926:29;;1964:33;1991:5;1964:33;:::i;:::-;1916:87;;;;:::o;2009:262::-;;2117:2;2105:9;2096:7;2092:23;2088:32;2085:2;;;2133:1;2130;2123:12;2085:2;2176:1;2201:53;2246:7;2237:6;2226:9;2222:22;2201:53;:::i;:::-;2191:63;;2147:117;2075:196;;;;:::o;2277:407::-;;;2402:2;2390:9;2381:7;2377:23;2373:32;2370:2;;;2418:1;2415;2408:12;2370:2;2461:1;2486:53;2531:7;2522:6;2511:9;2507:22;2486:53;:::i;:::-;2476:63;;2432:117;2588:2;2614:53;2659:7;2650:6;2639:9;2635:22;2614:53;:::i;:::-;2604:63;;2559:118;2360:324;;;;;:::o;2690:552::-;;;;2832:2;2820:9;2811:7;2807:23;2803:32;2800:2;;;2848:1;2845;2838:12;2800:2;2891:1;2916:53;2961:7;2952:6;2941:9;2937:22;2916:53;:::i;:::-;2906:63;;2862:117;3018:2;3044:53;3089:7;3080:6;3069:9;3065:22;3044:53;:::i;:::-;3034:63;;2989:118;3146:2;3172:53;3217:7;3208:6;3197:9;3193:22;3172:53;:::i;:::-;3162:63;;3117:118;2790:452;;;;;:::o;3248:809::-;;;;;3416:3;3404:9;3395:7;3391:23;3387:33;3384:2;;;3433:1;3430;3423:12;3384:2;3476:1;3501:53;3546:7;3537:6;3526:9;3522:22;3501:53;:::i;:::-;3491:63;;3447:117;3603:2;3629:53;3674:7;3665:6;3654:9;3650:22;3629:53;:::i;:::-;3619:63;;3574:118;3731:2;3757:53;3802:7;3793:6;3782:9;3778:22;3757:53;:::i;:::-;3747:63;;3702:118;3887:2;3876:9;3872:18;3859:32;3918:18;3910:6;3907:30;3904:2;;;3950:1;3947;3940:12;3904:2;3978:62;4032:7;4023:6;4012:9;4008:22;3978:62;:::i;:::-;3968:72;;3830:220;3374:683;;;;;;;:::o;4063:401::-;;;4185:2;4173:9;4164:7;4160:23;4156:32;4153:2;;;4201:1;4198;4191:12;4153:2;4244:1;4269:53;4314:7;4305:6;4294:9;4290:22;4269:53;:::i;:::-;4259:63;;4215:117;4371:2;4397:50;4439:7;4430:6;4419:9;4415:22;4397:50;:::i;:::-;4387:60;;4342:115;4143:321;;;;;:::o;4470:407::-;;;4595:2;4583:9;4574:7;4570:23;4566:32;4563:2;;;4611:1;4608;4601:12;4563:2;4654:1;4679:53;4724:7;4715:6;4704:9;4700:22;4679:53;:::i;:::-;4669:63;;4625:117;4781:2;4807:53;4852:7;4843:6;4832:9;4828:22;4807:53;:::i;:::-;4797:63;;4752:118;4553:324;;;;;:::o;4883:260::-;;4990:2;4978:9;4969:7;4965:23;4961:32;4958:2;;;5006:1;5003;4996:12;4958:2;5049:1;5074:52;5118:7;5109:6;5098:9;5094:22;5074:52;:::i;:::-;5064:62;;5020:116;4948:195;;;;:::o;5149:282::-;;5267:2;5255:9;5246:7;5242:23;5238:32;5235:2;;;5283:1;5280;5273:12;5235:2;5326:1;5351:63;5406:7;5397:6;5386:9;5382:22;5351:63;:::i;:::-;5341:73;;5297:127;5225:206;;;;:::o;5437:375::-;;5555:2;5543:9;5534:7;5530:23;5526:32;5523:2;;;5571:1;5568;5561:12;5523:2;5642:1;5631:9;5627:17;5614:31;5672:18;5664:6;5661:30;5658:2;;;5704:1;5701;5694:12;5658:2;5732:63;5787:7;5778:6;5767:9;5763:22;5732:63;:::i;:::-;5722:73;;5585:220;5513:299;;;;:::o;5818:262::-;;5926:2;5914:9;5905:7;5901:23;5897:32;5894:2;;;5942:1;5939;5932:12;5894:2;5985:1;6010:53;6055:7;6046:6;6035:9;6031:22;6010:53;:::i;:::-;6000:63;;5956:117;5884:196;;;;:::o;6086:407::-;;;6211:2;6199:9;6190:7;6186:23;6182:32;6179:2;;;6227:1;6224;6217:12;6179:2;6270:1;6295:53;6340:7;6331:6;6320:9;6316:22;6295:53;:::i;:::-;6285:63;;6241:117;6397:2;6423:53;6468:7;6459:6;6448:9;6444:22;6423:53;:::i;:::-;6413:63;;6368:118;6169:324;;;;;:::o;6499:118::-;6586:24;6604:5;6586:24;:::i;:::-;6581:3;6574:37;6564:53;;:::o;6623:109::-;6704:21;6719:5;6704:21;:::i;:::-;6699:3;6692:34;6682:50;;:::o;6738:360::-;;6852:38;6884:5;6852:38;:::i;:::-;6906:70;6969:6;6964:3;6906:70;:::i;:::-;6899:77;;6985:52;7030:6;7025:3;7018:4;7011:5;7007:16;6985:52;:::i;:::-;7062:29;7084:6;7062:29;:::i;:::-;7057:3;7053:39;7046:46;;6828:270;;;;;:::o;7104:364::-;;7220:39;7253:5;7220:39;:::i;:::-;7275:71;7339:6;7334:3;7275:71;:::i;:::-;7268:78;;7355:52;7400:6;7395:3;7388:4;7381:5;7377:16;7355:52;:::i;:::-;7432:29;7454:6;7432:29;:::i;:::-;7427:3;7423:39;7416:46;;7196:272;;;;;:::o;7474:377::-;;7608:39;7641:5;7608:39;:::i;:::-;7663:89;7745:6;7740:3;7663:89;:::i;:::-;7656:96;;7761:52;7806:6;7801:3;7794:4;7787:5;7783:16;7761:52;:::i;:::-;7838:6;7833:3;7829:16;7822:23;;7584:267;;;;;:::o;7857:366::-;;8020:67;8084:2;8079:3;8020:67;:::i;:::-;8013:74;;8096:93;8185:3;8096:93;:::i;:::-;8214:2;8209:3;8205:12;8198:19;;8003:220;;;:::o;8229:366::-;;8392:67;8456:2;8451:3;8392:67;:::i;:::-;8385:74;;8468:93;8557:3;8468:93;:::i;:::-;8586:2;8581:3;8577:12;8570:19;;8375:220;;;:::o;8601:366::-;;8764:67;8828:2;8823:3;8764:67;:::i;:::-;8757:74;;8840:93;8929:3;8840:93;:::i;:::-;8958:2;8953:3;8949:12;8942:19;;8747:220;;;:::o;8973:366::-;;9136:67;9200:2;9195:3;9136:67;:::i;:::-;9129:74;;9212:93;9301:3;9212:93;:::i;:::-;9330:2;9325:3;9321:12;9314:19;;9119:220;;;:::o;9345:366::-;;9508:67;9572:2;9567:3;9508:67;:::i;:::-;9501:74;;9584:93;9673:3;9584:93;:::i;:::-;9702:2;9697:3;9693:12;9686:19;;9491:220;;;:::o;9717:366::-;;9880:67;9944:2;9939:3;9880:67;:::i;:::-;9873:74;;9956:93;10045:3;9956:93;:::i;:::-;10074:2;10069:3;10065:12;10058:19;;9863:220;;;:::o;10089:366::-;;10252:67;10316:2;10311:3;10252:67;:::i;:::-;10245:74;;10328:93;10417:3;10328:93;:::i;:::-;10446:2;10441:3;10437:12;10430:19;;10235:220;;;:::o;10461:366::-;;10624:67;10688:2;10683:3;10624:67;:::i;:::-;10617:74;;10700:93;10789:3;10700:93;:::i;:::-;10818:2;10813:3;10809:12;10802:19;;10607:220;;;:::o;10833:366::-;;10996:67;11060:2;11055:3;10996:67;:::i;:::-;10989:74;;11072:93;11161:3;11072:93;:::i;:::-;11190:2;11185:3;11181:12;11174:19;;10979:220;;;:::o;11205:366::-;;11368:67;11432:2;11427:3;11368:67;:::i;:::-;11361:74;;11444:93;11533:3;11444:93;:::i;:::-;11562:2;11557:3;11553:12;11546:19;;11351:220;;;:::o;11577:366::-;;11740:67;11804:2;11799:3;11740:67;:::i;:::-;11733:74;;11816:93;11905:3;11816:93;:::i;:::-;11934:2;11929:3;11925:12;11918:19;;11723:220;;;:::o;11949:366::-;;12112:67;12176:2;12171:3;12112:67;:::i;:::-;12105:74;;12188:93;12277:3;12188:93;:::i;:::-;12306:2;12301:3;12297:12;12290:19;;12095:220;;;:::o;12321:366::-;;12484:67;12548:2;12543:3;12484:67;:::i;:::-;12477:74;;12560:93;12649:3;12560:93;:::i;:::-;12678:2;12673:3;12669:12;12662:19;;12467:220;;;:::o;12693:366::-;;12856:67;12920:2;12915:3;12856:67;:::i;:::-;12849:74;;12932:93;13021:3;12932:93;:::i;:::-;13050:2;13045:3;13041:12;13034:19;;12839:220;;;:::o;13065:366::-;;13228:67;13292:2;13287:3;13228:67;:::i;:::-;13221:74;;13304:93;13393:3;13304:93;:::i;:::-;13422:2;13417:3;13413:12;13406:19;;13211:220;;;:::o;13437:366::-;;13600:67;13664:2;13659:3;13600:67;:::i;:::-;13593:74;;13676:93;13765:3;13676:93;:::i;:::-;13794:2;13789:3;13785:12;13778:19;;13583:220;;;:::o;13809:366::-;;13972:67;14036:2;14031:3;13972:67;:::i;:::-;13965:74;;14048:93;14137:3;14048:93;:::i;:::-;14166:2;14161:3;14157:12;14150:19;;13955:220;;;:::o;14181:366::-;;14344:67;14408:2;14403:3;14344:67;:::i;:::-;14337:74;;14420:93;14509:3;14420:93;:::i;:::-;14538:2;14533:3;14529:12;14522:19;;14327:220;;;:::o;14553:366::-;;14716:67;14780:2;14775:3;14716:67;:::i;:::-;14709:74;;14792:93;14881:3;14792:93;:::i;:::-;14910:2;14905:3;14901:12;14894:19;;14699:220;;;:::o;14925:366::-;;15088:67;15152:2;15147:3;15088:67;:::i;:::-;15081:74;;15164:93;15253:3;15164:93;:::i;:::-;15282:2;15277:3;15273:12;15266:19;;15071:220;;;:::o;15297:366::-;;15460:67;15524:2;15519:3;15460:67;:::i;:::-;15453:74;;15536:93;15625:3;15536:93;:::i;:::-;15654:2;15649:3;15645:12;15638:19;;15443:220;;;:::o;15669:366::-;;15832:67;15896:2;15891:3;15832:67;:::i;:::-;15825:74;;15908:93;15997:3;15908:93;:::i;:::-;16026:2;16021:3;16017:12;16010:19;;15815:220;;;:::o;16041:398::-;;16221:83;16302:1;16297:3;16221:83;:::i;:::-;16214:90;;16313:93;16402:3;16313:93;:::i;:::-;16431:1;16426:3;16422:11;16415:18;;16204:235;;;:::o;16445:366::-;;16608:67;16672:2;16667:3;16608:67;:::i;:::-;16601:74;;16684:93;16773:3;16684:93;:::i;:::-;16802:2;16797:3;16793:12;16786:19;;16591:220;;;:::o;16817:366::-;;16980:67;17044:2;17039:3;16980:67;:::i;:::-;16973:74;;17056:93;17145:3;17056:93;:::i;:::-;17174:2;17169:3;17165:12;17158:19;;16963:220;;;:::o;17189:366::-;;17352:67;17416:2;17411:3;17352:67;:::i;:::-;17345:74;;17428:93;17517:3;17428:93;:::i;:::-;17546:2;17541:3;17537:12;17530:19;;17335:220;;;:::o;17561:366::-;;17724:67;17788:2;17783:3;17724:67;:::i;:::-;17717:74;;17800:93;17889:3;17800:93;:::i;:::-;17918:2;17913:3;17909:12;17902:19;;17707:220;;;:::o;17933:366::-;;18096:67;18160:2;18155:3;18096:67;:::i;:::-;18089:74;;18172:93;18261:3;18172:93;:::i;:::-;18290:2;18285:3;18281:12;18274:19;;18079:220;;;:::o;18305:366::-;;18468:67;18532:2;18527:3;18468:67;:::i;:::-;18461:74;;18544:93;18633:3;18544:93;:::i;:::-;18662:2;18657:3;18653:12;18646:19;;18451:220;;;:::o;18677:366::-;;18840:67;18904:2;18899:3;18840:67;:::i;:::-;18833:74;;18916:93;19005:3;18916:93;:::i;:::-;19034:2;19029:3;19025:12;19018:19;;18823:220;;;:::o;19049:118::-;19136:24;19154:5;19136:24;:::i;:::-;19131:3;19124:37;19114:53;;:::o;19173:435::-;;19375:95;19466:3;19457:6;19375:95;:::i;:::-;19368:102;;19487:95;19578:3;19569:6;19487:95;:::i;:::-;19480:102;;19599:3;19592:10;;19357:251;;;;;:::o;19614:379::-;;19820:147;19963:3;19820:147;:::i;:::-;19813:154;;19984:3;19977:10;;19802:191;;;:::o;19999:222::-;;20130:2;20119:9;20115:18;20107:26;;20143:71;20211:1;20200:9;20196:17;20187:6;20143:71;:::i;:::-;20097:124;;;;:::o;20227:640::-;;20460:3;20449:9;20445:19;20437:27;;20474:71;20542:1;20531:9;20527:17;20518:6;20474:71;:::i;:::-;20555:72;20623:2;20612:9;20608:18;20599:6;20555:72;:::i;:::-;20637;20705:2;20694:9;20690:18;20681:6;20637:72;:::i;:::-;20756:9;20750:4;20746:20;20741:2;20730:9;20726:18;20719:48;20784:76;20855:4;20846:6;20784:76;:::i;:::-;20776:84;;20427:440;;;;;;;:::o;20873:210::-;;20998:2;20987:9;20983:18;20975:26;;21011:65;21073:1;21062:9;21058:17;21049:6;21011:65;:::i;:::-;20965:118;;;;:::o;21089:313::-;;21240:2;21229:9;21225:18;21217:26;;21289:9;21283:4;21279:20;21275:1;21264:9;21260:17;21253:47;21317:78;21390:4;21381:6;21317:78;:::i;:::-;21309:86;;21207:195;;;;:::o;21408:419::-;;21612:2;21601:9;21597:18;21589:26;;21661:9;21655:4;21651:20;21647:1;21636:9;21632:17;21625:47;21689:131;21815:4;21689:131;:::i;:::-;21681:139;;21579:248;;;:::o;21833:419::-;;22037:2;22026:9;22022:18;22014:26;;22086:9;22080:4;22076:20;22072:1;22061:9;22057:17;22050:47;22114:131;22240:4;22114:131;:::i;:::-;22106:139;;22004:248;;;:::o;22258:419::-;;22462:2;22451:9;22447:18;22439:26;;22511:9;22505:4;22501:20;22497:1;22486:9;22482:17;22475:47;22539:131;22665:4;22539:131;:::i;:::-;22531:139;;22429:248;;;:::o;22683:419::-;;22887:2;22876:9;22872:18;22864:26;;22936:9;22930:4;22926:20;22922:1;22911:9;22907:17;22900:47;22964:131;23090:4;22964:131;:::i;:::-;22956:139;;22854:248;;;:::o;23108:419::-;;23312:2;23301:9;23297:18;23289:26;;23361:9;23355:4;23351:20;23347:1;23336:9;23332:17;23325:47;23389:131;23515:4;23389:131;:::i;:::-;23381:139;;23279:248;;;:::o;23533:419::-;;23737:2;23726:9;23722:18;23714:26;;23786:9;23780:4;23776:20;23772:1;23761:9;23757:17;23750:47;23814:131;23940:4;23814:131;:::i;:::-;23806:139;;23704:248;;;:::o;23958:419::-;;24162:2;24151:9;24147:18;24139:26;;24211:9;24205:4;24201:20;24197:1;24186:9;24182:17;24175:47;24239:131;24365:4;24239:131;:::i;:::-;24231:139;;24129:248;;;:::o;24383:419::-;;24587:2;24576:9;24572:18;24564:26;;24636:9;24630:4;24626:20;24622:1;24611:9;24607:17;24600:47;24664:131;24790:4;24664:131;:::i;:::-;24656:139;;24554:248;;;:::o;24808:419::-;;25012:2;25001:9;24997:18;24989:26;;25061:9;25055:4;25051:20;25047:1;25036:9;25032:17;25025:47;25089:131;25215:4;25089:131;:::i;:::-;25081:139;;24979:248;;;:::o;25233:419::-;;25437:2;25426:9;25422:18;25414:26;;25486:9;25480:4;25476:20;25472:1;25461:9;25457:17;25450:47;25514:131;25640:4;25514:131;:::i;:::-;25506:139;;25404:248;;;:::o;25658:419::-;;25862:2;25851:9;25847:18;25839:26;;25911:9;25905:4;25901:20;25897:1;25886:9;25882:17;25875:47;25939:131;26065:4;25939:131;:::i;:::-;25931:139;;25829:248;;;:::o;26083:419::-;;26287:2;26276:9;26272:18;26264:26;;26336:9;26330:4;26326:20;26322:1;26311:9;26307:17;26300:47;26364:131;26490:4;26364:131;:::i;:::-;26356:139;;26254:248;;;:::o;26508:419::-;;26712:2;26701:9;26697:18;26689:26;;26761:9;26755:4;26751:20;26747:1;26736:9;26732:17;26725:47;26789:131;26915:4;26789:131;:::i;:::-;26781:139;;26679:248;;;:::o;26933:419::-;;27137:2;27126:9;27122:18;27114:26;;27186:9;27180:4;27176:20;27172:1;27161:9;27157:17;27150:47;27214:131;27340:4;27214:131;:::i;:::-;27206:139;;27104:248;;;:::o;27358:419::-;;27562:2;27551:9;27547:18;27539:26;;27611:9;27605:4;27601:20;27597:1;27586:9;27582:17;27575:47;27639:131;27765:4;27639:131;:::i;:::-;27631:139;;27529:248;;;:::o;27783:419::-;;27987:2;27976:9;27972:18;27964:26;;28036:9;28030:4;28026:20;28022:1;28011:9;28007:17;28000:47;28064:131;28190:4;28064:131;:::i;:::-;28056:139;;27954:248;;;:::o;28208:419::-;;28412:2;28401:9;28397:18;28389:26;;28461:9;28455:4;28451:20;28447:1;28436:9;28432:17;28425:47;28489:131;28615:4;28489:131;:::i;:::-;28481:139;;28379:248;;;:::o;28633:419::-;;28837:2;28826:9;28822:18;28814:26;;28886:9;28880:4;28876:20;28872:1;28861:9;28857:17;28850:47;28914:131;29040:4;28914:131;:::i;:::-;28906:139;;28804:248;;;:::o;29058:419::-;;29262:2;29251:9;29247:18;29239:26;;29311:9;29305:4;29301:20;29297:1;29286:9;29282:17;29275:47;29339:131;29465:4;29339:131;:::i;:::-;29331:139;;29229:248;;;:::o;29483:419::-;;29687:2;29676:9;29672:18;29664:26;;29736:9;29730:4;29726:20;29722:1;29711:9;29707:17;29700:47;29764:131;29890:4;29764:131;:::i;:::-;29756:139;;29654:248;;;:::o;29908:419::-;;30112:2;30101:9;30097:18;30089:26;;30161:9;30155:4;30151:20;30147:1;30136:9;30132:17;30125:47;30189:131;30315:4;30189:131;:::i;:::-;30181:139;;30079:248;;;:::o;30333:419::-;;30537:2;30526:9;30522:18;30514:26;;30586:9;30580:4;30576:20;30572:1;30561:9;30557:17;30550:47;30614:131;30740:4;30614:131;:::i;:::-;30606:139;;30504:248;;;:::o;30758:419::-;;30962:2;30951:9;30947:18;30939:26;;31011:9;31005:4;31001:20;30997:1;30986:9;30982:17;30975:47;31039:131;31165:4;31039:131;:::i;:::-;31031:139;;30929:248;;;:::o;31183:419::-;;31387:2;31376:9;31372:18;31364:26;;31436:9;31430:4;31426:20;31422:1;31411:9;31407:17;31400:47;31464:131;31590:4;31464:131;:::i;:::-;31456:139;;31354:248;;;:::o;31608:419::-;;31812:2;31801:9;31797:18;31789:26;;31861:9;31855:4;31851:20;31847:1;31836:9;31832:17;31825:47;31889:131;32015:4;31889:131;:::i;:::-;31881:139;;31779:248;;;:::o;32033:419::-;;32237:2;32226:9;32222:18;32214:26;;32286:9;32280:4;32276:20;32272:1;32261:9;32257:17;32250:47;32314:131;32440:4;32314:131;:::i;:::-;32306:139;;32204:248;;;:::o;32458:419::-;;32662:2;32651:9;32647:18;32639:26;;32711:9;32705:4;32701:20;32697:1;32686:9;32682:17;32675:47;32739:131;32865:4;32739:131;:::i;:::-;32731:139;;32629:248;;;:::o;32883:419::-;;33087:2;33076:9;33072:18;33064:26;;33136:9;33130:4;33126:20;33122:1;33111:9;33107:17;33100:47;33164:131;33290:4;33164:131;:::i;:::-;33156:139;;33054:248;;;:::o;33308:419::-;;33512:2;33501:9;33497:18;33489:26;;33561:9;33555:4;33551:20;33547:1;33536:9;33532:17;33525:47;33589:131;33715:4;33589:131;:::i;:::-;33581:139;;33479:248;;;:::o;33733:222::-;;33864:2;33853:9;33849:18;33841:26;;33877:71;33945:1;33934:9;33930:17;33921:6;33877:71;:::i;:::-;33831:124;;;;:::o;33961:129::-;;34022:20;;:::i;:::-;34012:30;;34051:33;34079:4;34071:6;34051:33;:::i;:::-;34002:88;;;:::o;34096:75::-;;34162:2;34156:9;34146:19;;34136:35;:::o;34177:307::-;;34328:18;34320:6;34317:30;34314:2;;;34350:18;;:::i;:::-;34314:2;34388:29;34410:6;34388:29;:::i;:::-;34380:37;;34472:4;34466;34462:15;34454:23;;34243:241;;;:::o;34490:308::-;;34642:18;34634:6;34631:30;34628:2;;;34664:18;;:::i;:::-;34628:2;34702:29;34724:6;34702:29;:::i;:::-;34694:37;;34786:4;34780;34776:15;34768:23;;34557:241;;;:::o;34804:98::-;;34889:5;34883:12;34873:22;;34862:40;;;:::o;34908:99::-;;34994:5;34988:12;34978:22;;34967:40;;;:::o;35013:168::-;;35130:6;35125:3;35118:19;35170:4;35165:3;35161:14;35146:29;;35108:73;;;;:::o;35187:147::-;;35325:3;35310:18;;35300:34;;;;:::o;35340:169::-;;35458:6;35453:3;35446:19;35498:4;35493:3;35489:14;35474:29;;35436:73;;;;:::o;35515:148::-;;35654:3;35639:18;;35629:34;;;;:::o;35669:305::-;;35728:20;35746:1;35728:20;:::i;:::-;35723:25;;35762:20;35780:1;35762:20;:::i;:::-;35757:25;;35916:1;35848:66;35844:74;35841:1;35838:81;35835:2;;;35922:18;;:::i;:::-;35835:2;35966:1;35963;35959:9;35952:16;;35713:261;;;;:::o;35980:185::-;;36037:20;36055:1;36037:20;:::i;:::-;36032:25;;36071:20;36089:1;36071:20;:::i;:::-;36066:25;;36110:1;36100:2;;36115:18;;:::i;:::-;36100:2;36157:1;36154;36150:9;36145:14;;36022:143;;;;:::o;36171:348::-;;36234:20;36252:1;36234:20;:::i;:::-;36229:25;;36268:20;36286:1;36268:20;:::i;:::-;36263:25;;36456:1;36388:66;36384:74;36381:1;36378:81;36373:1;36366:9;36359:17;36355:105;36352:2;;;36463:18;;:::i;:::-;36352:2;36511:1;36508;36504:9;36493:20;;36219:300;;;;:::o;36525:191::-;;36585:20;36603:1;36585:20;:::i;:::-;36580:25;;36619:20;36637:1;36619:20;:::i;:::-;36614:25;;36658:1;36655;36652:8;36649:2;;;36663:18;;:::i;:::-;36649:2;36708:1;36705;36701:9;36693:17;;36570:146;;;;:::o;36722:96::-;;36788:24;36806:5;36788:24;:::i;:::-;36777:35;;36767:51;;;:::o;36824:90::-;;36901:5;36894:13;36887:21;36876:32;;36866:48;;;:::o;36920:149::-;;36996:66;36989:5;36985:78;36974:89;;36964:105;;;:::o;37075:126::-;;37152:42;37145:5;37141:54;37130:65;;37120:81;;;:::o;37207:77::-;;37273:5;37262:16;;37252:32;;;:::o;37290:154::-;37374:6;37369:3;37364;37351:30;37436:1;37427:6;37422:3;37418:16;37411:27;37341:103;;;:::o;37450:307::-;37518:1;37528:113;37542:6;37539:1;37536:13;37528:113;;;37627:1;37622:3;37618:11;37612:18;37608:1;37603:3;37599:11;37592:39;37564:2;37561:1;37557:10;37552:15;;37528:113;;;37659:6;37656:1;37653:13;37650:2;;;37739:1;37730:6;37725:3;37721:16;37714:27;37650:2;37499:258;;;;:::o;37763:320::-;;37844:1;37838:4;37834:12;37824:22;;37891:1;37885:4;37881:12;37912:18;37902:2;;37968:4;37960:6;37956:17;37946:27;;37902:2;38030;38022:6;38019:14;37999:18;37996:38;37993:2;;;38049:18;;:::i;:::-;37993:2;37814:269;;;;:::o;38089:281::-;38172:27;38194:4;38172:27;:::i;:::-;38164:6;38160:40;38302:6;38290:10;38287:22;38266:18;38254:10;38251:34;38248:62;38245:2;;;38313:18;;:::i;:::-;38245:2;38353:10;38349:2;38342:22;38132:238;;;:::o;38376:233::-;;38438:24;38456:5;38438:24;:::i;:::-;38429:33;;38484:66;38477:5;38474:77;38471:2;;;38554:18;;:::i;:::-;38471:2;38601:1;38594:5;38590:13;38583:20;;38419:190;;;:::o;38615:176::-;;38664:20;38682:1;38664:20;:::i;:::-;38659:25;;38698:20;38716:1;38698:20;:::i;:::-;38693:25;;38737:1;38727:2;;38742:18;;:::i;:::-;38727:2;38783:1;38780;38776:9;38771:14;;38649:142;;;;:::o;38797:180::-;38845:77;38842:1;38835:88;38942:4;38939:1;38932:15;38966:4;38963:1;38956:15;38983:180;39031:77;39028:1;39021:88;39128:4;39125:1;39118:15;39152:4;39149:1;39142:15;39169:180;39217:77;39214:1;39207:88;39314:4;39311:1;39304:15;39338:4;39335:1;39328:15;39355:180;39403:77;39400:1;39393:88;39500:4;39497:1;39490:15;39524:4;39521:1;39514:15;39541:102;;39633:2;39629:7;39624:2;39617:5;39613:14;39609:28;39599:38;;39589:54;;;:::o;39649:230::-;39789:34;39785:1;39777:6;39773:14;39766:58;39858:13;39853:2;39845:6;39841:15;39834:38;39755:124;:::o;39885:237::-;40025:34;40021:1;40013:6;40009:14;40002:58;40094:20;40089:2;40081:6;40077:15;40070:45;39991:131;:::o;40128:225::-;40268:34;40264:1;40256:6;40252:14;40245:58;40337:8;40332:2;40324:6;40320:15;40313:33;40234:119;:::o;40359:178::-;40499:30;40495:1;40487:6;40483:14;40476:54;40465:72;:::o;40543:223::-;40683:34;40679:1;40671:6;40667:14;40660:58;40752:6;40747:2;40739:6;40735:15;40728:31;40649:117;:::o;40772:175::-;40912:27;40908:1;40900:6;40896:14;40889:51;40878:69;:::o;40953:179::-;41093:31;41089:1;41081:6;41077:14;41070:55;41059:73;:::o;41138:231::-;41278:34;41274:1;41266:6;41262:14;41255:58;41347:14;41342:2;41334:6;41330:15;41323:39;41244:125;:::o;41375:243::-;41515:34;41511:1;41503:6;41499:14;41492:58;41584:26;41579:2;41571:6;41567:15;41560:51;41481:137;:::o;41624:229::-;41764:34;41760:1;41752:6;41748:14;41741:58;41833:12;41828:2;41820:6;41816:15;41809:37;41730:123;:::o;41859:228::-;41999:34;41995:1;41987:6;41983:14;41976:58;42068:11;42063:2;42055:6;42051:15;42044:36;41965:122;:::o;42093:225::-;42233:34;42229:1;42221:6;42217:14;42210:58;42302:8;42297:2;42289:6;42285:15;42278:33;42199:119;:::o;42324:182::-;42464:34;42460:1;42452:6;42448:14;42441:58;42430:76;:::o;42512:231::-;42652:34;42648:1;42640:6;42636:14;42629:58;42721:14;42716:2;42708:6;42704:15;42697:39;42618:125;:::o;42749:174::-;42889:26;42885:1;42877:6;42873:14;42866:50;42855:68;:::o;42929:182::-;43069:34;43065:1;43057:6;43053:14;43046:58;43035:76;:::o;43117:163::-;43257:15;43253:1;43245:6;43241:14;43234:39;43223:57;:::o;43286:228::-;43426:34;43422:1;43414:6;43410:14;43403:58;43495:11;43490:2;43482:6;43478:15;43471:36;43392:122;:::o;43520:234::-;43660:34;43656:1;43648:6;43644:14;43637:58;43729:17;43724:2;43716:6;43712:15;43705:42;43626:128;:::o;43760:175::-;43900:27;43896:1;43888:6;43884:14;43877:51;43866:69;:::o;43941:220::-;44081:34;44077:1;44069:6;44065:14;44058:58;44150:3;44145:2;44137:6;44133:15;44126:28;44047:114;:::o;44167:173::-;44307:25;44303:1;44295:6;44291:14;44284:49;44273:67;:::o;44346:114::-;44452:8;:::o;44466:166::-;44606:18;44602:1;44594:6;44590:14;44583:42;44572:60;:::o;44638:236::-;44778:34;44774:1;44766:6;44762:14;44755:58;44847:19;44842:2;44834:6;44830:15;44823:44;44744:130;:::o;44880:231::-;45020:34;45016:1;45008:6;45004:14;44997:58;45089:14;45084:2;45076:6;45072:15;45065:39;44986:125;:::o;45117:176::-;45257:28;45253:1;45245:6;45241:14;45234:52;45223:70;:::o;45299:181::-;45439:33;45435:1;45427:6;45423:14;45416:57;45405:75;:::o;45486:235::-;45626:34;45622:1;45614:6;45610:14;45603:58;45695:18;45690:2;45682:6;45678:15;45671:43;45592:129;:::o;45727:172::-;45867:24;45863:1;45855:6;45851:14;45844:48;45833:66;:::o;45905:122::-;45978:24;45996:5;45978:24;:::i;:::-;45971:5;45968:35;45958:2;;46017:1;46014;46007:12;45958:2;45948:79;:::o;46033:116::-;46103:21;46118:5;46103:21;:::i;:::-;46096:5;46093:32;46083:2;;46139:1;46136;46129:12;46083:2;46073:76;:::o;46155:120::-;46227:23;46244:5;46227:23;:::i;:::-;46220:5;46217:34;46207:2;;46265:1;46262;46255:12;46207:2;46197:78;:::o;46281:122::-;46354:24;46372:5;46354:24;:::i;:::-;46347:5;46344:35;46334:2;;46393:1;46390;46383:12;46334:2;46324:79;:::o",
  "linkReferences": {},
  "deployedLinkReferences": {}
}