{
    "_format": "hh-sol-artifact-1",
    "contractName": "YayBears",
    "sourceName": "contracts/YayBears.sol",
    "abi": [
        {
            "inputs": [],
            "stateMutability": "nonpayable",
            "type": "constructor"
        },
        {
            "anonymous": false,
            "inputs": [
                {
                    "indexed": true,
                    "internalType": "address",
                    "name": "owner",
                    "type": "address"
                },
                {
                    "indexed": true,
                    "internalType": "address",
                    "name": "approved",
                    "type": "address"
                },
                {
                    "indexed": true,
                    "internalType": "uint256",
                    "name": "tokenId",
                    "type": "uint256"
                }
            ],
            "name": "Approval",
            "type": "event"
        },
        {
            "anonymous": false,
            "inputs": [
                {
                    "indexed": true,
                    "internalType": "address",
                    "name": "owner",
                    "type": "address"
                },
                {
                    "indexed": true,
                    "internalType": "address",
                    "name": "operator",
                    "type": "address"
                },
                {
                    "indexed": false,
                    "internalType": "bool",
                    "name": "approved",
                    "type": "bool"
                }
            ],
            "name": "ApprovalForAll",
            "type": "event"
        },
        {
            "anonymous": false,
            "inputs": [
                {
                    "indexed": true,
                    "internalType": "uint256",
                    "name": "tokenId",
                    "type": "uint256"
                }
            ],
            "name": "Delist",
            "type": "event"
        },
        {
            "anonymous": false,
            "inputs": [
                {
                    "indexed": true,
                    "internalType": "uint256",
                    "name": "tokenId",
                    "type": "uint256"
                },
                {
                    "indexed": false,
                    "internalType": "uint256",
                    "name": "value",
                    "type": "uint256"
                }
            ],
            "name": "List",
            "type": "event"
        },
        {
            "anonymous": false,
            "inputs": [
                {
                    "indexed": true,
                    "internalType": "address",
                    "name": "previousOwner",
                    "type": "address"
                },
                {
                    "indexed": true,
                    "internalType": "address",
                    "name": "newOwner",
                    "type": "address"
                }
            ],
            "name": "OwnershipTransferred",
            "type": "event"
        },
        {
            "anonymous": false,
            "inputs": [
                {
                    "indexed": true,
                    "internalType": "address",
                    "name": "from",
                    "type": "address"
                },
                {
                    "indexed": true,
                    "internalType": "address",
                    "name": "to",
                    "type": "address"
                },
                {
                    "indexed": true,
                    "internalType": "uint256",
                    "name": "tokenId",
                    "type": "uint256"
                }
            ],
            "name": "Transfer",
            "type": "event"
        },
        {
            "inputs": [],
            "name": "MAX_BEARS",
            "outputs": [
                {
                    "internalType": "uint256",
                    "name": "",
                    "type": "uint256"
                }
            ],
            "stateMutability": "view",
            "type": "function"
        },
        {
            "inputs": [],
            "name": "MINT_FEE",
            "outputs": [
                {
                    "internalType": "uint256",
                    "name": "",
                    "type": "uint256"
                }
            ],
            "stateMutability": "view",
            "type": "function"
        },
        {
            "inputs": [
                {
                    "internalType": "address",
                    "name": "to",
                    "type": "address"
                },
                {
                    "internalType": "uint256",
                    "name": "tokenId",
                    "type": "uint256"
                }
            ],
            "name": "approve",
            "outputs": [],
            "stateMutability": "nonpayable",
            "type": "function"
        },
        {
            "inputs": [
                {
                    "internalType": "address",
                    "name": "owner",
                    "type": "address"
                }
            ],
            "name": "balanceOf",
            "outputs": [
                {
                    "internalType": "uint256",
                    "name": "",
                    "type": "uint256"
                }
            ],
            "stateMutability": "view",
            "type": "function"
        },
        {
            "inputs": [],
            "name": "base",
            "outputs": [
                {
                    "internalType": "string",
                    "name": "",
                    "type": "string"
                }
            ],
            "stateMutability": "view",
            "type": "function"
        },
        {
            "inputs": [
                {
                    "internalType": "uint256",
                    "name": "tokenId",
                    "type": "uint256"
                }
            ],
            "name": "burn",
            "outputs": [],
            "stateMutability": "nonpayable",
            "type": "function"
        },
        {
            "inputs": [
                {
                    "internalType": "uint256",
                    "name": "tokenId",
                    "type": "uint256"
                }
            ],
            "name": "buyBear",
            "outputs": [],
            "stateMutability": "payable",
            "type": "function"
        },
        {
            "inputs": [
                {
                    "internalType": "uint256",
                    "name": "tokenId",
                    "type": "uint256"
                }
            ],
            "name": "delistBear",
            "outputs": [],
            "stateMutability": "nonpayable",
            "type": "function"
        },
        {
            "inputs": [
                {
                    "internalType": "uint256",
                    "name": "tokenId",
                    "type": "uint256"
                }
            ],
            "name": "getApproved",
            "outputs": [
                {
                    "internalType": "address",
                    "name": "",
                    "type": "address"
                }
            ],
            "stateMutability": "view",
            "type": "function"
        },
        {
            "inputs": [
                {
                    "internalType": "address",
                    "name": "owner",
                    "type": "address"
                },
                {
                    "internalType": "address",
                    "name": "operator",
                    "type": "address"
                }
            ],
            "name": "isApprovedForAll",
            "outputs": [
                {
                    "internalType": "bool",
                    "name": "",
                    "type": "bool"
                }
            ],
            "stateMutability": "view",
            "type": "function"
        },
        {
            "inputs": [],
            "name": "isMarketPlaceOn",
            "outputs": [
                {
                    "internalType": "bool",
                    "name": "",
                    "type": "bool"
                }
            ],
            "stateMutability": "view",
            "type": "function"
        },
        {
            "inputs": [
                {
                    "internalType": "uint256",
                    "name": "tokenId",
                    "type": "uint256"
                },
                {
                    "internalType": "uint256",
                    "name": "price",
                    "type": "uint256"
                }
            ],
            "name": "listBear",
            "outputs": [],
            "stateMutability": "nonpayable",
            "type": "function"
        },
        {
            "inputs": [
                {
                    "internalType": "uint256",
                    "name": "",
                    "type": "uint256"
                }
            ],
            "name": "listings",
            "outputs": [
                {
                    "internalType": "uint256",
                    "name": "",
                    "type": "uint256"
                }
            ],
            "stateMutability": "view",
            "type": "function"
        },
        {
            "inputs": [
                {
                    "internalType": "uint256",
                    "name": "_numBears",
                    "type": "uint256"
                }
            ],
            "name": "mint",
            "outputs": [],
            "stateMutability": "payable",
            "type": "function"
        },
        {
            "inputs": [],
            "name": "name",
            "outputs": [
                {
                    "internalType": "string",
                    "name": "",
                    "type": "string"
                }
            ],
            "stateMutability": "view",
            "type": "function"
        },
        {
            "inputs": [],
            "name": "owner",
            "outputs": [
                {
                    "internalType": "address",
                    "name": "",
                    "type": "address"
                }
            ],
            "stateMutability": "view",
            "type": "function"
        },
        {
            "inputs": [
                {
                    "internalType": "uint256",
                    "name": "tokenId",
                    "type": "uint256"
                }
            ],
            "name": "ownerOf",
            "outputs": [
                {
                    "internalType": "address",
                    "name": "",
                    "type": "address"
                }
            ],
            "stateMutability": "view",
            "type": "function"
        },
        {
            "inputs": [],
            "name": "renounceOwnership",
            "outputs": [],
            "stateMutability": "nonpayable",
            "type": "function"
        },
        {
            "inputs": [
                {
                    "internalType": "uint256",
                    "name": "_reserveAmount",
                    "type": "uint256"
                }
            ],
            "name": "reserveTokens",
            "outputs": [],
            "stateMutability": "nonpayable",
            "type": "function"
        },
        {
            "inputs": [
                {
                    "internalType": "address",
                    "name": "from",
                    "type": "address"
                },
                {
                    "internalType": "address",
                    "name": "to",
                    "type": "address"
                },
                {
                    "internalType": "uint256",
                    "name": "tokenId",
                    "type": "uint256"
                }
            ],
            "name": "safeTransferFrom",
            "outputs": [],
            "stateMutability": "nonpayable",
            "type": "function"
        },
        {
            "inputs": [
                {
                    "internalType": "address",
                    "name": "from",
                    "type": "address"
                },
                {
                    "internalType": "address",
                    "name": "to",
                    "type": "address"
                },
                {
                    "internalType": "uint256",
                    "name": "tokenId",
                    "type": "uint256"
                },
                {
                    "internalType": "bytes",
                    "name": "_data",
                    "type": "bytes"
                }
            ],
            "name": "safeTransferFrom",
            "outputs": [],
            "stateMutability": "nonpayable",
            "type": "function"
        },
        {
            "inputs": [
                {
                    "internalType": "address",
                    "name": "operator",
                    "type": "address"
                },
                {
                    "internalType": "bool",
                    "name": "approved",
                    "type": "bool"
                }
            ],
            "name": "setApprovalForAll",
            "outputs": [],
            "stateMutability": "nonpayable",
            "type": "function"
        },
        {
            "inputs": [
                {
                    "internalType": "string",
                    "name": "_baseTokenURI",
                    "type": "string"
                }
            ],
            "name": "setBaseTokenURI",
            "outputs": [],
            "stateMutability": "nonpayable",
            "type": "function"
        },
        {
            "inputs": [
                {
                    "internalType": "bytes4",
                    "name": "interfaceId",
                    "type": "bytes4"
                }
            ],
            "name": "supportsInterface",
            "outputs": [
                {
                    "internalType": "bool",
                    "name": "",
                    "type": "bool"
                }
            ],
            "stateMutability": "view",
            "type": "function"
        },
        {
            "inputs": [],
            "name": "symbol",
            "outputs": [
                {
                    "internalType": "string",
                    "name": "",
                    "type": "string"
                }
            ],
            "stateMutability": "view",
            "type": "function"
        },
        {
            "inputs": [],
            "name": "toggleMarketPlace",
            "outputs": [],
            "stateMutability": "nonpayable",
            "type": "function"
        },
        {
            "inputs": [
                {
                    "internalType": "uint256",
                    "name": "index",
                    "type": "uint256"
                }
            ],
            "name": "tokenByIndex",
            "outputs": [
                {
                    "internalType": "uint256",
                    "name": "",
                    "type": "uint256"
                }
            ],
            "stateMutability": "view",
            "type": "function"
        },
        {
            "inputs": [
                {
                    "internalType": "address",
                    "name": "owner",
                    "type": "address"
                },
                {
                    "internalType": "uint256",
                    "name": "index",
                    "type": "uint256"
                }
            ],
            "name": "tokenOfOwnerByIndex",
            "outputs": [
                {
                    "internalType": "uint256",
                    "name": "",
                    "type": "uint256"
                }
            ],
            "stateMutability": "view",
            "type": "function"
        },
        {
            "inputs": [
                {
                    "internalType": "uint256",
                    "name": "tokenId",
                    "type": "uint256"
                }
            ],
            "name": "tokenURI",
            "outputs": [
                {
                    "internalType": "string",
                    "name": "",
                    "type": "string"
                }
            ],
            "stateMutability": "view",
            "type": "function"
        },
        {
            "inputs": [],
            "name": "totalSupply",
            "outputs": [
                {
                    "internalType": "uint256",
                    "name": "",
                    "type": "uint256"
                }
            ],
            "stateMutability": "view",
            "type": "function"
        },
        {
            "inputs": [
                {
                    "internalType": "address",
                    "name": "from",
                    "type": "address"
                },
                {
                    "internalType": "address",
                    "name": "to",
                    "type": "address"
                },
                {
                    "internalType": "uint256",
                    "name": "tokenId",
                    "type": "uint256"
                }
            ],
            "name": "transferFrom",
            "outputs": [],
            "stateMutability": "nonpayable",
            "type": "function"
        },
        {
            "inputs": [
                {
                    "internalType": "address",
                    "name": "newOwner",
                    "type": "address"
                }
            ],
            "name": "transferOwnership",
            "outputs": [],
            "stateMutability": "nonpayable",
            "type": "function"
        },
        {
            "inputs": [],
            "name": "withdraw",
            "outputs": [],
            "stateMutability": "nonpayable",
            "type": "function"
        }
    ],
    "bytecode": "0x60806040526001600d60006101000a81548160ff0219169083151502179055506040518060400160405280600681526020017f3c75726c3e2f0000000000000000000000000000000000000000000000000000815250600f90805190602001906200006c92919062000de8565b503480156200007a57600080fd5b506040518060400160405280600981526020017f59415920426561727300000000000000000000000000000000000000000000008152506040518060400160405280600581526020017f594245415200000000000000000000000000000000000000000000000000000081525062000107620000fb6200015b60201b60201c565b6200016360201b60201c565b81600190805190602001906200011f92919062000de8565b5080600290805190602001906200013892919062000de8565b5050506001600b819055506200015560326200022760201b60201c565b6200148a565b600033905090565b60008060009054906101000a900473ffffffffffffffffffffffffffffffffffffffff169050816000806101000a81548173ffffffffffffffffffffffffffffffffffffffff021916908373ffffffffffffffffffffffffffffffffffffffff1602179055508173ffffffffffffffffffffffffffffffffffffffff168173ffffffffffffffffffffffffffffffffffffffff167f8be0079c531659141344cd1fd0a4f28419497f9722a3daafe3b4186f6b6457e060405160405180910390a35050565b620002376200015b60201b60201c565b73ffffffffffffffffffffffffffffffffffffffff166200025d6200032a60201b60201c565b73ffffffffffffffffffffffffffffffffffffffff1614620002b6576040517f08c379a0000000000000000000000000000000000000000000000000000000008152600401620002ad90620010dd565b60405180910390fd5b60005b818110156200032657620002f9620002d66200032a60201b60201c565b620002ed600c6200035360201b62001bef1760201c565b6200036160201b60201c565b62000310600c6200038760201b62001bfd1760201c565b80806200031d906200129a565b915050620002b9565b5050565b60008060009054906101000a900473ffffffffffffffffffffffffffffffffffffffff16905090565b600081600001549050919050565b620003838282604051806020016040528060008152506200039d60201b60201c565b5050565b6001816000016000828254019250508190555050565b620003af83836200040b60201b60201c565b620003c46000848484620005f160201b60201c565b62000406576040517f08c379a0000000000000000000000000000000000000000000000000000000008152600401620003fd9062001055565b60405180910390fd5b505050565b600073ffffffffffffffffffffffffffffffffffffffff168273ffffffffffffffffffffffffffffffffffffffff1614156200047e576040517f08c379a00000000000000000000000000000000000000000000000000000000081526004016200047590620010bb565b60405180910390fd5b6200048f81620007ab60201b60201c565b15620004d2576040517f08c379a0000000000000000000000000000000000000000000000000000000008152600401620004c99062001077565b60405180910390fd5b620004e6600083836200081760201b60201c565b6001600460008473ffffffffffffffffffffffffffffffffffffffff1673ffffffffffffffffffffffffffffffffffffffff16815260200190815260200160002060008282546200053891906200112c565b92505081905550816003600083815260200190815260200160002060006101000a81548173ffffffffffffffffffffffffffffffffffffffff021916908373ffffffffffffffffffffffffffffffffffffffff160217905550808273ffffffffffffffffffffffffffffffffffffffff16600073ffffffffffffffffffffffffffffffffffffffff167fddf252ad1be2c89b69c2b068fc378daa952ba7f163c4a11628f55a4df523b3ef60405160405180910390a45050565b60006200061f8473ffffffffffffffffffffffffffffffffffffffff166200083460201b62001c131760201c565b156200079e578373ffffffffffffffffffffffffffffffffffffffff1663150b7a02620006516200015b60201b60201c565b8786866040518563ffffffff1660e01b815260040162000675949392919062001001565b602060405180830381600087803b1580156200069057600080fd5b505af1925050508015620006c457506040513d601f19601f82011682018060405250810190620006c1919062000eaf565b60015b6200074d573d8060008114620006f7576040519150601f19603f3d011682016040523d82523d6000602084013e620006fc565b606091505b5060008151141562000745576040517f08c379a00000000000000000000000000000000000000000000000000000000081526004016200073c9062001055565b60405180910390fd5b805181602001fd5b63150b7a0260e01b7bffffffffffffffffffffffffffffffffffffffffffffffffffffffff1916817bffffffffffffffffffffffffffffffffffffffffffffffffffffffff191614915050620007a3565b600190505b949350505050565b60008073ffffffffffffffffffffffffffffffffffffffff166003600084815260200190815260200160002060009054906101000a900473ffffffffffffffffffffffffffffffffffffffff1673ffffffffffffffffffffffffffffffffffffffff1614159050919050565b6200082f8383836200084760201b62001c261760201c565b505050565b600080823b905060008111915050919050565b6200085f8383836200098e60201b62001d3a1760201c565b600073ffffffffffffffffffffffffffffffffffffffff168373ffffffffffffffffffffffffffffffffffffffff161415620008ac57620008a6816200099360201b60201c565b620008f4565b8173ffffffffffffffffffffffffffffffffffffffff168373ffffffffffffffffffffffffffffffffffffffff1614620008f357620008f28382620009dc60201b60201c565b5b5b600073ffffffffffffffffffffffffffffffffffffffff168273ffffffffffffffffffffffffffffffffffffffff16141562000941576200093b8162000b5960201b60201c565b62000989565b8273ffffffffffffffffffffffffffffffffffffffff168273ffffffffffffffffffffffffffffffffffffffff1614620009885762000987828262000ca160201b60201c565b5b5b505050565b505050565b600980549050600a600083815260200190815260200160002081905550600981908060018154018082558091505060019003906000526020600020016000909190919091505550565b60006001620009f68462000d2d60201b620010e91760201c565b62000a02919062001189565b905060006008600084815260200190815260200160002054905081811462000ae8576000600760008673ffffffffffffffffffffffffffffffffffffffff1673ffffffffffffffffffffffffffffffffffffffff168152602001908152602001600020600084815260200190815260200160002054905080600760008773ffffffffffffffffffffffffffffffffffffffff1673ffffffffffffffffffffffffffffffffffffffff168152602001908152602001600020600084815260200190815260200160002081905550816008600083815260200190815260200160002081905550505b6008600084815260200190815260200160002060009055600760008573ffffffffffffffffffffffffffffffffffffffff1673ffffffffffffffffffffffffffffffffffffffff16815260200190815260200160002060008381526020019081526020016000206000905550505050565b6000600160098054905062000b6f919062001189565b90506000600a600084815260200190815260200160002054905060006009838154811062000bc6577f4e487b7100000000000000000000000000000000000000000000000000000000600052603260045260246000fd5b90600052602060002001549050806009838154811062000c0f577f4e487b7100000000000000000000000000000000000000000000000000000000600052603260045260246000fd5b906000526020600020018190555081600a600083815260200190815260200160002081905550600a600085815260200190815260200160002060009055600980548062000c85577f4e487b7100000000000000000000000000000000000000000000000000000000600052603160045260246000fd5b6001900381819060005260206000200160009055905550505050565b600062000cb98362000d2d60201b620010e91760201c565b905081600760008573ffffffffffffffffffffffffffffffffffffffff1673ffffffffffffffffffffffffffffffffffffffff168152602001908152602001600020600083815260200190815260200160002081905550806008600084815260200190815260200160002081905550505050565b60008073ffffffffffffffffffffffffffffffffffffffff168273ffffffffffffffffffffffffffffffffffffffff16141562000da1576040517f08c379a000000000000000000000000000000000000000000000000000000000815260040162000d989062001099565b60405180910390fd5b600460008373ffffffffffffffffffffffffffffffffffffffff1673ffffffffffffffffffffffffffffffffffffffff168152602001908152602001600020549050919050565b82805462000df69062001264565b90600052602060002090601f01602090048101928262000e1a576000855562000e66565b82601f1062000e3557805160ff191683800117855562000e66565b8280016001018555821562000e66579182015b8281111562000e6557825182559160200191906001019062000e48565b5b50905062000e75919062000e79565b5090565b5b8082111562000e9457600081600090555060010162000e7a565b5090565b60008151905062000ea98162001470565b92915050565b60006020828403121562000ec257600080fd5b600062000ed28482850162000e98565b91505092915050565b62000ee681620011c4565b82525050565b600062000ef982620010ff565b62000f0581856200110a565b935062000f178185602086016200122e565b62000f228162001346565b840191505092915050565b600062000f3c6032836200111b565b915062000f498262001357565b604082019050919050565b600062000f63601c836200111b565b915062000f7082620013a6565b602082019050919050565b600062000f8a602a836200111b565b915062000f9782620013cf565b604082019050919050565b600062000fb16020836200111b565b915062000fbe826200141e565b602082019050919050565b600062000fd86020836200111b565b915062000fe58262001447565b602082019050919050565b62000ffb8162001224565b82525050565b600060808201905062001018600083018762000edb565b62001027602083018662000edb565b62001036604083018562000ff0565b81810360608301526200104a818462000eec565b905095945050505050565b60006020820190508181036000830152620010708162000f2d565b9050919050565b60006020820190508181036000830152620010928162000f54565b9050919050565b60006020820190508181036000830152620010b48162000f7b565b9050919050565b60006020820190508181036000830152620010d68162000fa2565b9050919050565b60006020820190508181036000830152620010f88162000fc9565b9050919050565b600081519050919050565b600082825260208201905092915050565b600082825260208201905092915050565b6000620011398262001224565b9150620011468362001224565b9250827fffffffffffffffffffffffffffffffffffffffffffffffffffffffffffffffff038211156200117e576200117d620012e8565b5b828201905092915050565b6000620011968262001224565b9150620011a38362001224565b925082821015620011b957620011b8620012e8565b5b828203905092915050565b6000620011d18262001204565b9050919050565b60007fffffffff0000000000000000000000000000000000000000000000000000000082169050919050565b600073ffffffffffffffffffffffffffffffffffffffff82169050919050565b6000819050919050565b60005b838110156200124e57808201518184015260208101905062001231565b838111156200125e576000848401525b50505050565b600060028204905060018216806200127d57607f821691505b6020821081141562001294576200129362001317565b5b50919050565b6000620012a78262001224565b91507fffffffffffffffffffffffffffffffffffffffffffffffffffffffffffffffff821415620012dd57620012dc620012e8565b5b600182019050919050565b7f4e487b7100000000000000000000000000000000000000000000000000000000600052601160045260246000fd5b7f4e487b7100000000000000000000000000000000000000000000000000000000600052602260045260246000fd5b6000601f19601f8301169050919050565b7f4552433732313a207472616e7366657220746f206e6f6e20455243373231526560008201527f63656976657220696d706c656d656e7465720000000000000000000000000000602082015250565b7f4552433732313a20746f6b656e20616c7265616479206d696e74656400000000600082015250565b7f4552433732313a2062616c616e636520717565727920666f7220746865207a6560008201527f726f206164647265737300000000000000000000000000000000000000000000602082015250565b7f4552433732313a206d696e7420746f20746865207a65726f2061646472657373600082015250565b7f4f776e61626c653a2063616c6c6572206973206e6f7420746865206f776e6572600082015250565b6200147b81620011d8565b81146200148757600080fd5b50565b614a05806200149a6000396000f3fe6080604052600436106101ee5760003560e01c80636d0186301161010d578063b13d6a4e116100a0578063d7bf81a31161006f578063d7bf81a3146106b7578063da649ed7146106e2578063de74e57b1461070d578063e985e9c51461074a578063f2fde38b14610787576101ee565b8063b13d6a4e146105ff578063b88d4fde14610628578063c87b56dd14610651578063d031370b1461068e576101ee565b80638da5cb5b116100dc5780638da5cb5b1461056457806395d89b411461058f578063a0712d68146105ba578063a22cb465146105d6576101ee565b80636d018630146104c957806370a08231146104f457806370e8c5ea14610531578063715018a61461054d576101ee565b80632f745c591161018557806342966c681161015457806342966c68146103fb5780634f6ccce7146104245780635001f3b5146104615780636352211e1461048c576101ee565b80632f745c591461035557806330176e13146103925780633ccfd60b146103bb57806342842e0e146103d2576101ee565b80630fde47b1116101c15780630fde47b1146102c157806318160ddd146102ea57806318c6dcb01461031557806323b872dd1461032c576101ee565b806301ffc9a7146101f357806306fdde0314610230578063081812fc1461025b578063095ea7b314610298575b600080fd5b3480156101ff57600080fd5b5061021a600480360381019061021591906133a7565b6107b0565b6040516102279190613a29565b60405180910390f35b34801561023c57600080fd5b506102456107c2565b6040516102529190613a44565b60405180910390f35b34801561026757600080fd5b50610282600480360381019061027d919061343a565b610854565b60405161028f91906139c2565b60405180910390f35b3480156102a457600080fd5b506102bf60048036038101906102ba919061336b565b6108d9565b005b3480156102cd57600080fd5b506102e860048036038101906102e39190613463565b6109f1565b005b3480156102f657600080fd5b506102ff610b17565b60405161030c9190613e06565b60405180910390f35b34801561032157600080fd5b5061032a610b24565b005b34801561033857600080fd5b50610353600480360381019061034e9190613265565b610bcc565b005b34801561036157600080fd5b5061037c6004803603810190610377919061336b565b610c01565b6040516103899190613e06565b60405180910390f35b34801561039e57600080fd5b506103b960048036038101906103b491906133f9565b610ca6565b005b3480156103c757600080fd5b506103d0610d3c565b005b3480156103de57600080fd5b506103f960048036038101906103f49190613265565b610e6e565b005b34801561040757600080fd5b50610422600480360381019061041d919061343a565b610ea3565b005b34801561043057600080fd5b5061044b6004803603810190610446919061343a565b610eff565b6040516104589190613e06565b60405180910390f35b34801561046d57600080fd5b50610476610f96565b6040516104839190613a44565b60405180910390f35b34801561049857600080fd5b506104b360048036038101906104ae919061343a565b611024565b6040516104c091906139c2565b60405180910390f35b3480156104d557600080fd5b506104de6110d6565b6040516104eb9190613a29565b60405180910390f35b34801561050057600080fd5b5061051b60048036038101906105169190613200565b6110e9565b6040516105289190613e06565b60405180910390f35b61054b6004803603810190610546919061343a565b6111a1565b005b34801561055957600080fd5b5061056261139e565b005b34801561057057600080fd5b50610579611426565b60405161058691906139c2565b60405180910390f35b34801561059b57600080fd5b506105a461144f565b6040516105b19190613a44565b60405180910390f35b6105d460048036038101906105cf919061343a565b6114e1565b005b3480156105e257600080fd5b506105fd60048036038101906105f8919061332f565b61165a565b005b34801561060b57600080fd5b506106266004803603810190610621919061343a565b6117db565b005b34801561063457600080fd5b5061064f600480360381019061064a91906132b4565b61189a565b005b34801561065d57600080fd5b506106786004803603810190610673919061343a565b6118d1565b6040516106859190613a44565b60405180910390f35b34801561069a57600080fd5b506106b560048036038101906106b0919061343a565b611978565b005b3480156106c357600080fd5b506106cc611a3a565b6040516106d99190613e06565b60405180910390f35b3480156106ee57600080fd5b506106f7611a45565b6040516107049190613e06565b60405180910390f35b34801561071957600080fd5b50610734600480360381019061072f919061343a565b611a4b565b6040516107419190613e06565b60405180910390f35b34801561075657600080fd5b50610771600480360381019061076c9190613229565b611a63565b60405161077e9190613a29565b60405180910390f35b34801561079357600080fd5b506107ae60048036038101906107a99190613200565b611af7565b005b60006107bb82611d3f565b9050919050565b6060600180546107d1906140c1565b80601f01602080910402602001604051908101604052809291908181526020018280546107fd906140c1565b801561084a5780601f1061081f5761010080835404028352916020019161084a565b820191906000526020600020905b81548152906001019060200180831161082d57829003601f168201915b5050505050905090565b600061085f82611db9565b61089e576040517f08c379a000000000000000000000000000000000000000000000000000000000815260040161089590613c26565b60405180910390fd5b6005600083815260200190815260200160002060009054906101000a900473ffffffffffffffffffffffffffffffffffffffff169050919050565b60006108e482611024565b90508073ffffffffffffffffffffffffffffffffffffffff168373ffffffffffffffffffffffffffffffffffffffff161415610955576040517f08c379a000000000000000000000000000000000000000000000000000000000815260040161094c90613ce6565b60405180910390fd5b8073ffffffffffffffffffffffffffffffffffffffff16610974611e25565b73ffffffffffffffffffffffffffffffffffffffff1614806109a357506109a28161099d611e25565b611a63565b5b6109e2576040517f08c379a00000000000000000000000000000000000000000000000000000000081526004016109d990613ba6565b60405180910390fd5b6109ec8383611e2d565b505050565b600d60009054906101000a900460ff16610a40576040517f08c379a0000000000000000000000000000000000000000000000000000000008152600401610a3790613d06565b60405180910390fd5b610a4982611024565b73ffffffffffffffffffffffffffffffffffffffff163373ffffffffffffffffffffffffffffffffffffffff1614610ab6576040517f08c379a0000000000000000000000000000000000000000000000000000000008152600401610aad90613b66565b60405180910390fd5b60008111610ac357600080fd5b80600e600084815260200190815260200160002081905550817fc38e7832a23e5e13678e20a3184751ed5c3a1a74483e4f70f5e172e3b4ce5ac382604051610b0b9190613e06565b60405180910390a25050565b6000600980549050905090565b610b2c611e25565b73ffffffffffffffffffffffffffffffffffffffff16610b4a611426565b73ffffffffffffffffffffffffffffffffffffffff1614610ba0576040517f08c379a0000000000000000000000000000000000000000000000000000000008152600401610b9790613c46565b60405180910390fd5b600d60009054906101000a900460ff1615600d60006101000a81548160ff021916908315150217905550565b6000600e60008381526020019081526020016000205414610bf157610bf0816117db565b5b610bfc838383611ee6565b505050565b6000610c0c836110e9565b8210610c4d576040517f08c379a0000000000000000000000000000000000000000000000000000000008152600401610c4490613aa6565b60405180910390fd5b600760008473ffffffffffffffffffffffffffffffffffffffff1673ffffffffffffffffffffffffffffffffffffffff168152602001908152602001600020600083815260200190815260200160002054905092915050565b610cae611e25565b73ffffffffffffffffffffffffffffffffffffffff16610ccc611426565b73ffffffffffffffffffffffffffffffffffffffff1614610d22576040517f08c379a0000000000000000000000000000000000000000000000000000000008152600401610d1990613c46565b60405180910390fd5b80600f9080519060200190610d38929190613024565b5050565b610d44611e25565b73ffffffffffffffffffffffffffffffffffffffff16610d62611426565b73ffffffffffffffffffffffffffffffffffffffff1614610db8576040517f08c379a0000000000000000000000000000000000000000000000000000000008152600401610daf90613c46565b60405180910390fd5b6000610dc2611426565b73ffffffffffffffffffffffffffffffffffffffff1647604051610de5906139ad565b60006040518083038185875af1925050503d8060008114610e22576040519150601f19603f3d011682016040523d82523d6000602084013e610e27565b606091505b5050905080610e6b576040517f08c379a0000000000000000000000000000000000000000000000000000000008152600401610e6290613d26565b60405180910390fd5b50565b6000600e60008381526020019081526020016000205414610e9357610e92816117db565b5b610e9e838383611f46565b505050565b610eb4610eae611e25565b82611f66565b610ef3576040517f08c379a0000000000000000000000000000000000000000000000000000000008152600401610eea90613de6565b60405180910390fd5b610efc81612044565b50565b6000610f09610b17565b8210610f4a576040517f08c379a0000000000000000000000000000000000000000000000000000000008152600401610f4190613d66565b60405180910390fd5b60098281548110610f84577f4e487b7100000000000000000000000000000000000000000000000000000000600052603260045260246000fd5b90600052602060002001549050919050565b600f8054610fa3906140c1565b80601f0160208091040260200160405190810160405280929190818152602001828054610fcf906140c1565b801561101c5780601f10610ff15761010080835404028352916020019161101c565b820191906000526020600020905b815481529060010190602001808311610fff57829003601f168201915b505050505081565b6000806003600084815260200190815260200160002060009054906101000a900473ffffffffffffffffffffffffffffffffffffffff169050600073ffffffffffffffffffffffffffffffffffffffff168173ffffffffffffffffffffffffffffffffffffffff1614156110cd576040517f08c379a00000000000000000000000000000000000000000000000000000000081526004016110c490613be6565b60405180910390fd5b80915050919050565b600d60009054906101000a900460ff1681565b60008073ffffffffffffffffffffffffffffffffffffffff168273ffffffffffffffffffffffffffffffffffffffff16141561115a576040517f08c379a000000000000000000000000000000000000000000000000000000000815260040161115190613bc6565b60405180910390fd5b600460008373ffffffffffffffffffffffffffffffffffffffff1673ffffffffffffffffffffffffffffffffffffffff168152602001908152602001600020549050919050565b6002600b5414156111e7576040517f08c379a00000000000000000000000000000000000000000000000000000000081526004016111de90613dc6565b60405180910390fd5b6002600b81905550600d60009054906101000a900460ff1661123e576040517f08c379a000000000000000000000000000000000000000000000000000000000815260040161123590613d06565b60405180910390fd5b6000600e60008381526020019081526020016000205411611294576040517f08c379a000000000000000000000000000000000000000000000000000000000815260040161128b90613c86565b60405180910390fd5b600e6000828152602001908152602001600020543410156112ea576040517f08c379a00000000000000000000000000000000000000000000000000000000081526004016112e190613da6565b60405180910390fd5b60006112f582611024565b9050611302813384612155565b6000600e60008481526020019081526020016000208190555060008173ffffffffffffffffffffffffffffffffffffffff1634604051611341906139ad565b60006040518083038185875af1925050503d806000811461137e576040519150601f19603f3d011682016040523d82523d6000602084013e611383565b606091505b505090508061139157600080fd5b50506001600b8190555050565b6113a6611e25565b73ffffffffffffffffffffffffffffffffffffffff166113c4611426565b73ffffffffffffffffffffffffffffffffffffffff161461141a576040517f08c379a000000000000000000000000000000000000000000000000000000000815260040161141190613c46565b60405180910390fd5b61142460006123b1565b565b60008060009054906101000a900473ffffffffffffffffffffffffffffffffffffffff16905090565b60606002805461145e906140c1565b80601f016020809104026020016040519081016040528092919081815260200182805461148a906140c1565b80156114d75780601f106114ac576101008083540402835291602001916114d7565b820191906000526020600020905b8154815290600101906020018083116114ba57829003601f168201915b5050505050905090565b60006114ed600c611bef565b90506014821115611533576040517f08c379a000000000000000000000000000000000000000000000000000000000815260040161152a90613a66565b60405180910390fd5b611f9582826115429190613ef6565b1115611583576040517f08c379a000000000000000000000000000000000000000000000000000000000815260040161157a90613d86565b60405180910390fd5b816658d15e176280006115969190613f7d565b34101580156115b257506103e882826115af9190613ef6565b11155b806115db57506002826658d15e176280006115cd9190613f7d565b6115d79190613f7d565b3410155b61161a576040517f08c379a000000000000000000000000000000000000000000000000000000000815260040161161190613c66565b60405180910390fd5b60005b828110156116555761163833611633600c611bef565b612475565b611642600c611bfd565b808061164d90614124565b91505061161d565b505050565b611662611e25565b73ffffffffffffffffffffffffffffffffffffffff168273ffffffffffffffffffffffffffffffffffffffff1614156116d0576040517f08c379a00000000000000000000000000000000000000000000000000000000081526004016116c790613b46565b60405180910390fd5b80600660006116dd611e25565b73ffffffffffffffffffffffffffffffffffffffff1673ffffffffffffffffffffffffffffffffffffffff16815260200190815260200160002060008473ffffffffffffffffffffffffffffffffffffffff1673ffffffffffffffffffffffffffffffffffffffff16815260200190815260200160002060006101000a81548160ff0219169083151502179055508173ffffffffffffffffffffffffffffffffffffffff1661178a611e25565b73ffffffffffffffffffffffffffffffffffffffff167f17307eab39ab6107e8899845ad3d59bd9653f200f220920489ca2b5937696c31836040516117cf9190613a29565b60405180910390a35050565b6117e481611024565b73ffffffffffffffffffffffffffffffffffffffff163373ffffffffffffffffffffffffffffffffffffffff1614611851576040517f08c379a000000000000000000000000000000000000000000000000000000000815260040161184890613a86565b60405180910390fd5b6000600e600083815260200190815260200160002081905550807f2c525dc2c086b9a2f3b902d229853b5b838fcedc22933c40ed7ebe4890a53a8260405160405180910390a250565b6000600e600084815260200190815260200160002054146118bf576118be826117db565b5b6118cb84848484612493565b50505050565b60606118dc82611db9565b61191b576040517f08c379a000000000000000000000000000000000000000000000000000000000815260040161191290613cc6565b60405180910390fd5b60006119256124f5565b905060008151116119455760405180602001604052806000815250611970565b8061194f84612587565b604051602001611960929190613989565b6040516020818303038152906040525b915050919050565b611980611e25565b73ffffffffffffffffffffffffffffffffffffffff1661199e611426565b73ffffffffffffffffffffffffffffffffffffffff16146119f4576040517f08c379a00000000000000000000000000000000000000000000000000000000081526004016119eb90613c46565b60405180910390fd5b60005b81811015611a3657611a19611a0a611426565b611a14600c611bef565b612475565b611a23600c611bfd565b8080611a2e90614124565b9150506119f7565b5050565b6658d15e1762800081565b611f9581565b600e6020528060005260406000206000915090505481565b6000600660008473ffffffffffffffffffffffffffffffffffffffff1673ffffffffffffffffffffffffffffffffffffffff16815260200190815260200160002060008373ffffffffffffffffffffffffffffffffffffffff1673ffffffffffffffffffffffffffffffffffffffff16815260200190815260200160002060009054906101000a900460ff16905092915050565b611aff611e25565b73ffffffffffffffffffffffffffffffffffffffff16611b1d611426565b73ffffffffffffffffffffffffffffffffffffffff1614611b73576040517f08c379a0000000000000000000000000000000000000000000000000000000008152600401611b6a90613c46565b60405180910390fd5b600073ffffffffffffffffffffffffffffffffffffffff168173ffffffffffffffffffffffffffffffffffffffff161415611be3576040517f08c379a0000000000000000000000000000000000000000000000000000000008152600401611bda90613ae6565b60405180910390fd5b611bec816123b1565b50565b600081600001549050919050565b6001816000016000828254019250508190555050565b600080823b905060008111915050919050565b611c31838383611d3a565b600073ffffffffffffffffffffffffffffffffffffffff168373ffffffffffffffffffffffffffffffffffffffff161415611c7457611c6f81612734565b611cb3565b8173ffffffffffffffffffffffffffffffffffffffff168373ffffffffffffffffffffffffffffffffffffffff1614611cb257611cb1838261277d565b5b5b600073ffffffffffffffffffffffffffffffffffffffff168273ffffffffffffffffffffffffffffffffffffffff161415611cf657611cf1816128ea565b611d35565b8273ffffffffffffffffffffffffffffffffffffffff168273ffffffffffffffffffffffffffffffffffffffff1614611d3457611d338282612a2d565b5b5b505050565b505050565b60007f780e9d63000000000000000000000000000000000000000000000000000000007bffffffffffffffffffffffffffffffffffffffffffffffffffffffff1916827bffffffffffffffffffffffffffffffffffffffffffffffffffffffff19161480611db25750611db182612aac565b5b9050919050565b60008073ffffffffffffffffffffffffffffffffffffffff166003600084815260200190815260200160002060009054906101000a900473ffffffffffffffffffffffffffffffffffffffff1673ffffffffffffffffffffffffffffffffffffffff1614159050919050565b600033905090565b816005600083815260200190815260200160002060006101000a81548173ffffffffffffffffffffffffffffffffffffffff021916908373ffffffffffffffffffffffffffffffffffffffff160217905550808273ffffffffffffffffffffffffffffffffffffffff16611ea083611024565b73ffffffffffffffffffffffffffffffffffffffff167f8c5be1e5ebec7d5bd14f71427d1e84f3dd0314c0f7b2291e5b200ac8c7c3b92560405160405180910390a45050565b611ef7611ef1611e25565b82611f66565b611f36576040517f08c379a0000000000000000000000000000000000000000000000000000000008152600401611f2d90613d46565b60405180910390fd5b611f41838383612155565b505050565b611f618383836040518060200160405280600081525061189a565b505050565b6000611f7182611db9565b611fb0576040517f08c379a0000000000000000000000000000000000000000000000000000000008152600401611fa790613b86565b60405180910390fd5b6000611fbb83611024565b90508073ffffffffffffffffffffffffffffffffffffffff168473ffffffffffffffffffffffffffffffffffffffff16148061202a57508373ffffffffffffffffffffffffffffffffffffffff1661201284610854565b73ffffffffffffffffffffffffffffffffffffffff16145b8061203b575061203a8185611a63565b5b91505092915050565b600061204f82611024565b905061205d81600084612b8e565b612068600083611e2d565b6001600460008373ffffffffffffffffffffffffffffffffffffffff1673ffffffffffffffffffffffffffffffffffffffff16815260200190815260200160002060008282546120b89190613fd7565b925050819055506003600083815260200190815260200160002060006101000a81549073ffffffffffffffffffffffffffffffffffffffff021916905581600073ffffffffffffffffffffffffffffffffffffffff168273ffffffffffffffffffffffffffffffffffffffff167fddf252ad1be2c89b69c2b068fc378daa952ba7f163c4a11628f55a4df523b3ef60405160405180910390a45050565b8273ffffffffffffffffffffffffffffffffffffffff1661217582611024565b73ffffffffffffffffffffffffffffffffffffffff16146121cb576040517f08c379a00000000000000000000000000000000000000000000000000000000081526004016121c290613ca6565b60405180910390fd5b600073ffffffffffffffffffffffffffffffffffffffff168273ffffffffffffffffffffffffffffffffffffffff16141561223b576040517f08c379a000000000000000000000000000000000000000000000000000000000815260040161223290613b26565b60405180910390fd5b612246838383612b8e565b612251600082611e2d565b6001600460008573ffffffffffffffffffffffffffffffffffffffff1673ffffffffffffffffffffffffffffffffffffffff16815260200190815260200160002060008282546122a19190613fd7565b925050819055506001600460008473ffffffffffffffffffffffffffffffffffffffff1673ffffffffffffffffffffffffffffffffffffffff16815260200190815260200160002060008282546122f89190613ef6565b92505081905550816003600083815260200190815260200160002060006101000a81548173ffffffffffffffffffffffffffffffffffffffff021916908373ffffffffffffffffffffffffffffffffffffffff160217905550808273ffffffffffffffffffffffffffffffffffffffff168473ffffffffffffffffffffffffffffffffffffffff167fddf252ad1be2c89b69c2b068fc378daa952ba7f163c4a11628f55a4df523b3ef60405160405180910390a4505050565b60008060009054906101000a900473ffffffffffffffffffffffffffffffffffffffff169050816000806101000a81548173ffffffffffffffffffffffffffffffffffffffff021916908373ffffffffffffffffffffffffffffffffffffffff1602179055508173ffffffffffffffffffffffffffffffffffffffff168173ffffffffffffffffffffffffffffffffffffffff167f8be0079c531659141344cd1fd0a4f28419497f9722a3daafe3b4186f6b6457e060405160405180910390a35050565b61248f828260405180602001604052806000815250612b9e565b5050565b6124a461249e611e25565b83611f66565b6124e3576040517f08c379a00000000000000000000000000000000000000000000000000000000081526004016124da90613d46565b60405180910390fd5b6124ef84848484612bf9565b50505050565b6060600f8054612504906140c1565b80601f0160208091040260200160405190810160405280929190818152602001828054612530906140c1565b801561257d5780601f106125525761010080835404028352916020019161257d565b820191906000526020600020905b81548152906001019060200180831161256057829003601f168201915b5050505050905090565b606060008214156125cf576040518060400160405280600181526020017f3000000000000000000000000000000000000000000000000000000000000000815250905061272f565b600082905060005b600082146126015780806125ea90614124565b915050600a826125fa9190613f4c565b91506125d7565b60008167ffffffffffffffff811115612643577f4e487b7100000000000000000000000000000000000000000000000000000000600052604160045260246000fd5b6040519080825280601f01601f1916602001820160405280156126755781602001600182028036833780820191505090505b5090505b600085146127285760018261268e9190613fd7565b9150600a8561269d919061416d565b60306126a99190613ef6565b60f81b8183815181106126e5577f4e487b7100000000000000000000000000000000000000000000000000000000600052603260045260246000fd5b60200101907effffffffffffffffffffffffffffffffffffffffffffffffffffffffffffff1916908160001a905350600a856127219190613f4c565b9450612679565b8093505050505b919050565b600980549050600a600083815260200190815260200160002081905550600981908060018154018082558091505060019003906000526020600020016000909190919091505550565b6000600161278a846110e9565b6127949190613fd7565b9050600060086000848152602001908152602001600020549050818114612879576000600760008673ffffffffffffffffffffffffffffffffffffffff1673ffffffffffffffffffffffffffffffffffffffff168152602001908152602001600020600084815260200190815260200160002054905080600760008773ffffffffffffffffffffffffffffffffffffffff1673ffffffffffffffffffffffffffffffffffffffff168152602001908152602001600020600084815260200190815260200160002081905550816008600083815260200190815260200160002081905550505b6008600084815260200190815260200160002060009055600760008573ffffffffffffffffffffffffffffffffffffffff1673ffffffffffffffffffffffffffffffffffffffff16815260200190815260200160002060008381526020019081526020016000206000905550505050565b600060016009805490506128fe9190613fd7565b90506000600a6000848152602001908152602001600020549050600060098381548110612954577f4e487b7100000000000000000000000000000000000000000000000000000000600052603260045260246000fd5b90600052602060002001549050806009838154811061299c577f4e487b7100000000000000000000000000000000000000000000000000000000600052603260045260246000fd5b906000526020600020018190555081600a600083815260200190815260200160002081905550600a6000858152602001908152602001600020600090556009805480612a11577f4e487b7100000000000000000000000000000000000000000000000000000000600052603160045260246000fd5b6001900381819060005260206000200160009055905550505050565b6000612a38836110e9565b905081600760008573ffffffffffffffffffffffffffffffffffffffff1673ffffffffffffffffffffffffffffffffffffffff168152602001908152602001600020600083815260200190815260200160002081905550806008600084815260200190815260200160002081905550505050565b60007f80ac58cd000000000000000000000000000000000000000000000000000000007bffffffffffffffffffffffffffffffffffffffffffffffffffffffff1916827bffffffffffffffffffffffffffffffffffffffffffffffffffffffff19161480612b7757507f5b5e139f000000000000000000000000000000000000000000000000000000007bffffffffffffffffffffffffffffffffffffffffffffffffffffffff1916827bffffffffffffffffffffffffffffffffffffffffffffffffffffffff1916145b80612b875750612b8682612c55565b5b9050919050565b612b99838383611c26565b505050565b612ba88383612cbf565b612bb56000848484612e8d565b612bf4576040517f08c379a0000000000000000000000000000000000000000000000000000000008152600401612beb90613ac6565b60405180910390fd5b505050565b612c04848484612155565b612c1084848484612e8d565b612c4f576040517f08c379a0000000000000000000000000000000000000000000000000000000008152600401612c4690613ac6565b60405180910390fd5b50505050565b60007f01ffc9a7000000000000000000000000000000000000000000000000000000007bffffffffffffffffffffffffffffffffffffffffffffffffffffffff1916827bffffffffffffffffffffffffffffffffffffffffffffffffffffffff1916149050919050565b600073ffffffffffffffffffffffffffffffffffffffff168273ffffffffffffffffffffffffffffffffffffffff161415612d2f576040517f08c379a0000000000000000000000000000000000000000000000000000000008152600401612d2690613c06565b60405180910390fd5b612d3881611db9565b15612d78576040517f08c379a0000000000000000000000000000000000000000000000000000000008152600401612d6f90613b06565b60405180910390fd5b612d8460008383612b8e565b6001600460008473ffffffffffffffffffffffffffffffffffffffff1673ffffffffffffffffffffffffffffffffffffffff1681526020019081526020016000206000828254612dd49190613ef6565b92505081905550816003600083815260200190815260200160002060006101000a81548173ffffffffffffffffffffffffffffffffffffffff021916908373ffffffffffffffffffffffffffffffffffffffff160217905550808273ffffffffffffffffffffffffffffffffffffffff16600073ffffffffffffffffffffffffffffffffffffffff167fddf252ad1be2c89b69c2b068fc378daa952ba7f163c4a11628f55a4df523b3ef60405160405180910390a45050565b6000612eae8473ffffffffffffffffffffffffffffffffffffffff16611c13565b15613017578373ffffffffffffffffffffffffffffffffffffffff1663150b7a02612ed7611e25565b8786866040518563ffffffff1660e01b8152600401612ef994939291906139dd565b602060405180830381600087803b158015612f1357600080fd5b505af1925050508015612f4457506040513d601f19601f82011682018060405250810190612f4191906133d0565b60015b612fc7573d8060008114612f74576040519150601f19603f3d011682016040523d82523d6000602084013e612f79565b606091505b50600081511415612fbf576040517f08c379a0000000000000000000000000000000000000000000000000000000008152600401612fb690613ac6565b60405180910390fd5b805181602001fd5b63150b7a0260e01b7bffffffffffffffffffffffffffffffffffffffffffffffffffffffff1916817bffffffffffffffffffffffffffffffffffffffffffffffffffffffff19161491505061301c565b600190505b949350505050565b828054613030906140c1565b90600052602060002090601f0160209004810192826130525760008555613099565b82601f1061306b57805160ff1916838001178555613099565b82800160010185558215613099579182015b8281111561309857825182559160200191906001019061307d565b5b5090506130a691906130aa565b5090565b5b808211156130c35760008160009055506001016130ab565b5090565b60006130da6130d584613e46565b613e21565b9050828152602081018484840111156130f257600080fd5b6130fd84828561407f565b509392505050565b600061311861311384613e77565b613e21565b90508281526020810184848401111561313057600080fd5b61313b84828561407f565b509392505050565b60008135905061315281614973565b92915050565b6000813590506131678161498a565b92915050565b60008135905061317c816149a1565b92915050565b600081519050613191816149a1565b92915050565b600082601f8301126131a857600080fd5b81356131b88482602086016130c7565b91505092915050565b600082601f8301126131d257600080fd5b81356131e2848260208601613105565b91505092915050565b6000813590506131fa816149b8565b92915050565b60006020828403121561321257600080fd5b600061322084828501613143565b91505092915050565b6000806040838503121561323c57600080fd5b600061324a85828601613143565b925050602061325b85828601613143565b9150509250929050565b60008060006060848603121561327a57600080fd5b600061328886828701613143565b935050602061329986828701613143565b92505060406132aa868287016131eb565b9150509250925092565b600080600080608085870312156132ca57600080fd5b60006132d887828801613143565b94505060206132e987828801613143565b93505060406132fa878288016131eb565b925050606085013567ffffffffffffffff81111561331757600080fd5b61332387828801613197565b91505092959194509250565b6000806040838503121561334257600080fd5b600061335085828601613143565b925050602061336185828601613158565b9150509250929050565b6000806040838503121561337e57600080fd5b600061338c85828601613143565b925050602061339d858286016131eb565b9150509250929050565b6000602082840312156133b957600080fd5b60006133c78482850161316d565b91505092915050565b6000602082840312156133e257600080fd5b60006133f084828501613182565b91505092915050565b60006020828403121561340b57600080fd5b600082013567ffffffffffffffff81111561342557600080fd5b613431848285016131c1565b91505092915050565b60006020828403121561344c57600080fd5b600061345a848285016131eb565b91505092915050565b6000806040838503121561347657600080fd5b6000613484858286016131eb565b9250506020613495858286016131eb565b9150509250929050565b6134a88161400b565b82525050565b6134b78161401d565b82525050565b60006134c882613ea8565b6134d28185613ebe565b93506134e281856020860161408e565b6134eb8161425a565b840191505092915050565b600061350182613eb3565b61350b8185613eda565b935061351b81856020860161408e565b6135248161425a565b840191505092915050565b600061353a82613eb3565b6135448185613eeb565b935061355481856020860161408e565b80840191505092915050565b600061356d602583613eda565b91506135788261426b565b604082019050919050565b6000613590601783613eda565b915061359b826142ba565b602082019050919050565b60006135b3602b83613eda565b91506135be826142e3565b604082019050919050565b60006135d6603283613eda565b91506135e182614332565b604082019050919050565b60006135f9602683613eda565b915061360482614381565b604082019050919050565b600061361c601c83613eda565b9150613627826143d0565b602082019050919050565b600061363f602483613eda565b915061364a826143f9565b604082019050919050565b6000613662601983613eda565b915061366d82614448565b602082019050919050565b6000613685601583613eda565b915061369082614471565b602082019050919050565b60006136a8602c83613eda565b91506136b38261449a565b604082019050919050565b60006136cb603883613eda565b91506136d6826144e9565b604082019050919050565b60006136ee602a83613eda565b91506136f982614538565b604082019050919050565b6000613711602983613eda565b915061371c82614587565b604082019050919050565b6000613734602083613eda565b915061373f826145d6565b602082019050919050565b6000613757602c83613eda565b9150613762826145ff565b604082019050919050565b600061377a602083613eda565b91506137858261464e565b602082019050919050565b600061379d600d83613eda565b91506137a882614677565b602082019050919050565b60006137c0601c83613eda565b91506137cb826146a0565b602082019050919050565b60006137e3602983613eda565b91506137ee826146c9565b604082019050919050565b6000613806602f83613eda565b915061381182614718565b604082019050919050565b6000613829602183613eda565b915061383482614767565b604082019050919050565b600061384c601783613eda565b9150613857826147b6565b602082019050919050565b600061386f600083613ecf565b915061387a826147df565b600082019050919050565b6000613892601083613eda565b915061389d826147e2565b602082019050919050565b60006138b5603183613eda565b91506138c08261480b565b604082019050919050565b60006138d8602c83613eda565b91506138e38261485a565b604082019050919050565b60006138fb601a83613eda565b9150613906826148a9565b602082019050919050565b600061391e601883613eda565b9150613929826148d2565b602082019050919050565b6000613941601f83613eda565b915061394c826148fb565b602082019050919050565b6000613964603083613eda565b915061396f82614924565b604082019050919050565b61398381614075565b82525050565b6000613995828561352f565b91506139a1828461352f565b91508190509392505050565b60006139b882613862565b9150819050919050565b60006020820190506139d7600083018461349f565b92915050565b60006080820190506139f2600083018761349f565b6139ff602083018661349f565b613a0c604083018561397a565b8181036060830152613a1e81846134bd565b905095945050505050565b6000602082019050613a3e60008301846134ae565b92915050565b60006020820190508181036000830152613a5e81846134f6565b905092915050565b60006020820190508181036000830152613a7f81613560565b9050919050565b60006020820190508181036000830152613a9f81613583565b9050919050565b60006020820190508181036000830152613abf816135a6565b9050919050565b60006020820190508181036000830152613adf816135c9565b9050919050565b60006020820190508181036000830152613aff816135ec565b9050919050565b60006020820190508181036000830152613b1f8161360f565b9050919050565b60006020820190508181036000830152613b3f81613632565b9050919050565b60006020820190508181036000830152613b5f81613655565b9050919050565b60006020820190508181036000830152613b7f81613678565b9050919050565b60006020820190508181036000830152613b9f8161369b565b9050919050565b60006020820190508181036000830152613bbf816136be565b9050919050565b60006020820190508181036000830152613bdf816136e1565b9050919050565b60006020820190508181036000830152613bff81613704565b9050919050565b60006020820190508181036000830152613c1f81613727565b9050919050565b60006020820190508181036000830152613c3f8161374a565b9050919050565b60006020820190508181036000830152613c5f8161376d565b9050919050565b60006020820190508181036000830152613c7f81613790565b9050919050565b60006020820190508181036000830152613c9f816137b3565b9050919050565b60006020820190508181036000830152613cbf816137d6565b9050919050565b60006020820190508181036000830152613cdf816137f9565b9050919050565b60006020820190508181036000830152613cff8161381c565b9050919050565b60006020820190508181036000830152613d1f8161383f565b9050919050565b60006020820190508181036000830152613d3f81613885565b9050919050565b60006020820190508181036000830152613d5f816138a8565b9050919050565b60006020820190508181036000830152613d7f816138cb565b9050919050565b60006020820190508181036000830152613d9f816138ee565b9050919050565b60006020820190508181036000830152613dbf81613911565b9050919050565b60006020820190508181036000830152613ddf81613934565b9050919050565b60006020820190508181036000830152613dff81613957565b9050919050565b6000602082019050613e1b600083018461397a565b92915050565b6000613e2b613e3c565b9050613e3782826140f3565b919050565b6000604051905090565b600067ffffffffffffffff821115613e6157613e6061422b565b5b613e6a8261425a565b9050602081019050919050565b600067ffffffffffffffff821115613e9257613e9161422b565b5b613e9b8261425a565b9050602081019050919050565b600081519050919050565b600081519050919050565b600082825260208201905092915050565b600081905092915050565b600082825260208201905092915050565b600081905092915050565b6000613f0182614075565b9150613f0c83614075565b9250827fffffffffffffffffffffffffffffffffffffffffffffffffffffffffffffffff03821115613f4157613f4061419e565b5b828201905092915050565b6000613f5782614075565b9150613f6283614075565b925082613f7257613f716141cd565b5b828204905092915050565b6000613f8882614075565b9150613f9383614075565b9250817fffffffffffffffffffffffffffffffffffffffffffffffffffffffffffffffff0483118215151615613fcc57613fcb61419e565b5b828202905092915050565b6000613fe282614075565b9150613fed83614075565b92508282101561400057613fff61419e565b5b828203905092915050565b600061401682614055565b9050919050565b60008115159050919050565b60007fffffffff0000000000000000000000000000000000000000000000000000000082169050919050565b600073ffffffffffffffffffffffffffffffffffffffff82169050919050565b6000819050919050565b82818337600083830152505050565b60005b838110156140ac578082015181840152602081019050614091565b838111156140bb576000848401525b50505050565b600060028204905060018216806140d957607f821691505b602082108114156140ed576140ec6141fc565b5b50919050565b6140fc8261425a565b810181811067ffffffffffffffff8211171561411b5761411a61422b565b5b80604052505050565b600061412f82614075565b91507fffffffffffffffffffffffffffffffffffffffffffffffffffffffffffffffff8214156141625761416161419e565b5b600182019050919050565b600061417882614075565b915061418383614075565b925082614193576141926141cd565b5b828206905092915050565b7f4e487b7100000000000000000000000000000000000000000000000000000000600052601160045260246000fd5b7f4e487b7100000000000000000000000000000000000000000000000000000000600052601260045260246000fd5b7f4e487b7100000000000000000000000000000000000000000000000000000000600052602260045260246000fd5b7f4e487b7100000000000000000000000000000000000000000000000000000000600052604160045260246000fd5b6000601f19601f8301169050919050565b7f4f6e6c792032302062656172732063616e206265206d696e746564206174206160008201527f2074696d65000000000000000000000000000000000000000000000000000000602082015250565b7f4d757374206f776e204265617220746f2064656c697374000000000000000000600082015250565b7f455243373231456e756d657261626c653a206f776e657220696e646578206f7560008201527f74206f6620626f756e6473000000000000000000000000000000000000000000602082015250565b7f4552433732313a207472616e7366657220746f206e6f6e20455243373231526560008201527f63656976657220696d706c656d656e7465720000000000000000000000000000602082015250565b7f4f776e61626c653a206e6577206f776e657220697320746865207a65726f206160008201527f6464726573730000000000000000000000000000000000000000000000000000602082015250565b7f4552433732313a20746f6b656e20616c7265616479206d696e74656400000000600082015250565b7f4552433732313a207472616e7366657220746f20746865207a65726f2061646460008201527f7265737300000000000000000000000000000000000000000000000000000000602082015250565b7f4552433732313a20617070726f766520746f2063616c6c657200000000000000600082015250565b7f4d757374206f776e204265617220746f2073656c6c0000000000000000000000600082015250565b7f4552433732313a206f70657261746f7220717565727920666f72206e6f6e657860008201527f697374656e7420746f6b656e0000000000000000000000000000000000000000602082015250565b7f4552433732313a20617070726f76652063616c6c6572206973206e6f74206f7760008201527f6e6572206e6f7220617070726f76656420666f7220616c6c0000000000000000602082015250565b7f4552433732313a2062616c616e636520717565727920666f7220746865207a6560008201527f726f206164647265737300000000000000000000000000000000000000000000602082015250565b7f4552433732313a206f776e657220717565727920666f72206e6f6e657869737460008201527f656e7420746f6b656e0000000000000000000000000000000000000000000000602082015250565b7f4552433732313a206d696e7420746f20746865207a65726f2061646472657373600082015250565b7f4552433732313a20617070726f76656420717565727920666f72206e6f6e657860008201527f697374656e7420746f6b656e0000000000000000000000000000000000000000602082015250565b7f4f776e61626c653a2063616c6c6572206973206e6f7420746865206f776e6572600082015250565b7f5072696365206e6f74206d657400000000000000000000000000000000000000600082015250565b7f42656172206d75737420626520666f722073616c6520746f2062757900000000600082015250565b7f4552433732313a207472616e73666572206f6620746f6b656e2074686174206960008201527f73206e6f74206f776e0000000000000000000000000000000000000000000000602082015250565b7f4552433732314d657461646174613a2055524920717565727920666f72206e6f60008201527f6e6578697374656e7420746f6b656e0000000000000000000000000000000000602082015250565b7f4552433732313a20617070726f76616c20746f2063757272656e74206f776e6560008201527f7200000000000000000000000000000000000000000000000000000000000000602082015250565b7f4d61726b6574706c6163652069732064697361626c6564000000000000000000600082015250565b50565b7f5472616e73666572206661696c65642e00000000000000000000000000000000600082015250565b7f4552433732313a207472616e736665722063616c6c6572206973206e6f74206f60008201527f776e6572206e6f7220617070726f766564000000000000000000000000000000602082015250565b7f455243373231456e756d657261626c653a20676c6f62616c20696e646578206f60008201527f7574206f6620626f756e64730000000000000000000000000000000000000000602082015250565b7f4d696e7420616d6f756e74206578636565647320737570706c79000000000000600082015250565b7f4d7573742070617920656e6f75676820666f7220426561720000000000000000600082015250565b7f5265656e7472616e637947756172643a207265656e7472616e742063616c6c00600082015250565b7f4552433732314275726e61626c653a2063616c6c6572206973206e6f74206f7760008201527f6e6572206e6f7220617070726f76656400000000000000000000000000000000602082015250565b61497c8161400b565b811461498757600080fd5b50565b6149938161401d565b811461499e57600080fd5b50565b6149aa81614029565b81146149b557600080fd5b50565b6149c181614075565b81146149cc57600080fd5b5056fea2646970667358221220ef14b51fafa75cd1348c04e0f20b76f19ec3292af00e5e245f08ad4695b4a3b964736f6c63430008020033",
    "linkReferences": {},
    "deployedLinkReferences": {}
}